:020000040800F2
:1000000000500020ED0C0008F50C0008F70C00086B
:10001000F90C0008FB0C0008FD0C000800000000B3
:10002000000000000000000000000000FF0C0008BD
:10003000010D000800000000030D0008050D000878
:10004000070D0008070D0008070D0008070D000840
:10005000070D0008070D0008070D0008070D000830
:10006000070D0008070D0008070D0008070D000820
:10007000070D0008070D0008070D0008070D000810
:10008000070D0008070D0008070D0008070D000800
:10009000070D0008070D0008070D0008070D0008F0
:1000A000070D0008070D0008070D0008070D0008E0
:1000B000070D0008070D0008070D0008070D0008D0
:1000C000070D0008070D0008070D0008070D0008C0
:1000D000070D0008070D0008070D0008070D0008B0
:1000E000070D0008070D0008070D0008DFF814D001
:1000F00001F00AFA00F00CFE00F064FF004800472F
:10010000AD190008005000207CB500F00BFD002563
:1001100016E0002410E02946204600F0A0FB691CF0
:10012000204600F09CFB2946601C00F098FB691CEF
:10013000601C00F094FB3234B4F5487FEBDB3235C1
:10014000B5F5167FE5DB00F0D8FA40F6B83003F0DD
:10015000BFFC00F0E7FC00240FE040F257232246EA
:100160000021084600F0A0FB40F257232246002160
:1001700040F21F3000F098FB6434B4F5487FECDBAC
:1001800000F0BBFA40F6B83003F0A2FC00F0CAFC65
:100190000321002000F001FB64231A460A210846CF
:1001A00000F0B1FB0321012000F0F7FA6423C8221C
:1001B0000A216E2000F0A7FB0321022000F0EDFAD7
:1001C00064234FF496720A21D22000F09CFB00F0C9
:1001D00094FA40F6B83003F07BFC0321002000F0D5
:1001E000DCFA00F09FFC002407E0224640F22B11CD
:1001F00040F28F1000F0CEFB2834B4F5967FF4DB8C
:1002000000F07BFA40F6B83003F062FC00F08AFCA4
:10021000002515E0002410E005EBC50202EB0512F5
:10022000322303EB820104EBC40202EB041203EB62
:1002300082001A4600F0D7FB641C082CECDB6D1C16
:10024000062DE7DB00F059FA40F6B83003F040FC29
:1002500000F068FC01242BE004EBC40000EB041068
:1002600040F25D1101EB400004EBC40101EB04110D
:1002700040F2C11202EB4101CDE9001004EBC400D1
:1002800000EB041040F25D1606EB400304EBC400E3
:1002900000EB0410A6EB400204EBC40000EB0410DA
:1002A000F926A6EB400140F28F1000F0C5FB641C5C
:1002B000052CD1DB00F021FA40F6B83003F008FC41
:1002C0007CBD10B50321002000F067FA00F02AFC85
:1002D000012000F0A4FA3222002163A000F03FFCCC
:1002E000022000F09CFA6422002165A000F037FC97
:1002F000032000F094FAA022002167A000F02FFC58
:10030000012000F06CFA4FF49672002168A000F012
:1003100026FC022000F063FA4FF4AF7200216AA0BD
:1003200000F01DFC032000F05AFA4FF4E1720021A6
:100330006BA000F014FC00F0E0F940F6B83003F0D8
:10034000C7FB10BD10B500F0EDFB002211466AA0FE
:1003500000F04DFC00F0D1F941F2883003F0B8FB19
:1003600000F0E0FB6422002166A000F040FC642263
:10037000910067A000F03BFC00F0BFF941F288302B
:1003800003F0A6FB00F0CEFB0022114663A000F0B4
:100390002EFC00F0B2F910BD00F0F2F800F018F9F0
:1003A000002000F07AF9FFF7AFFEFFF78AFFFFF7B2
:1003B000C9FF00F092F92BE05B4C00BF00BF00BF0B
:1003C00000BF00BF00BF204690F90000401C04D1D0
:1003D0003F22564956A002F07DFF00BF5248806878
:1003E000006851494968084201D0012000E000201E
:1003F00008B9012000E0002006463546294620467F
:1004000000F01BF800BF00BF4FF4FA7003F060FB70
:10041000D2E770B5444C05251421204600F0D6FCE7
:100420002946204602F0FAFE00BF474C0025294627
:10043000204602F007FE00BF70BD70B504460D46B1
:1004400000BF94F90000401C04D13522374938A080
:1004500002F040FF00BF1DB1E1686068086002E083
:1004600021696068086070BDA3C7A3C2A3CBA3B312
:10047000A3B2A3BAC4E3BAC3CAC0BDE70000000078
:10048000A3C7A3C2A3CBA3B4A3B8A3BAC4E3BAC3FC
:10049000CAC0BDE700000000A3C7A3C2A3CBA3B698
:1004A000A3B4A3BAC4E3BAC3CAC0BDE70000000046
:1004B000415343494933323A2048656C6C6F2C20D4
:1004C000576F726C64210000415343494934383AF4
:1004D0002048656C6C6F2C20576F726C6421000093
:1004E000415343494936343A2048656C6C6F2C209F
:1004F000576F726C64210000504943342E424D50B6
:1005000000000000504943322E424D5000000000D0
:10051000504943332E424D500000000050494337AC
:100520002E424D500000000054010020043B000802
:100530006F626A2D3E70696E20213D202850696EE1
:100540004E616D65294E4300EC00002070B50546F4
:100550000E46002404E0295DFE4801F059FE641CAB
:10056000B442F8DB70BD30B502460B46144600219C
:10057000002002E0655C6840491C9942FADB30BD0E
:1005800010B54FF4E131F3485C3801F0E5FD00218E
:10059000F14801F0B0FD0021F04801F0ACFD10BDC4
:1005A00010B50021ED4801F0A6FD0A2003F09EFAE7
:1005B0000121EA4801F09FFD4FF4FA7003F096FA2A
:1005C0000021E64801F097FDE54803F06FFA10BD01
:1005D00010B50021E04801F08EFD0A2003F086FAF4
:1005E0000121DD4801F087FD4FF4FA7003F07EFA37
:1005F0000021D94801F07FFD0A2003F069FA10BDFF
:1006000010B5D848D84A06CA06C008210838FFF7EE
:10061000AAFFD44908720921D248FFF797FF10BDFD
:1006200010B50446A520CF490870002048700D2061
:1006300088700120C870200E0871200C4871200AB3
:100640008871CC71CC20087233204872C320887224
:100650003C20C8720C21C348FFF785FFC1490873CD
:100660000D21C048FFF772FF0A2003F031FA21463E
:10067000B8485C3801F070FD10BD10B5B948BB4AF0
:1006800006CA06C008210838FFF76DFFB549087291
:100690000921B448FFF75AFF10BD10B50446A52044
:1006A000B0490870002048700A2088700720C87080
:1006B00008460471CC20487133208871C320C8716A
:1006C0003C2008720921A748FFF74DFFA549487251
:1006D0000A21A448FFF73AFF10BD10B5A148A44A6B
:1006E00006CA06C008210838FFF73DFF9D49087279
:1006F00009219C48FFF72AFF10BD10B599489D4A73
:1007000006CA06C008210838FFF72DFF9549087270
:1007100009219448FFF71AFF10BD10B50446A52023
:1007200090490870002048700A2088700D20C87019
:1007300008460471CC20487133208871C320C871E9
:100740003C20087209218748FFF70DFF8549487250
:100750000A218448FFF7FAFE10BD10B58148864A89
:1007600006CA06C008210838FFF7FDFE7D49087259
:1007700009217C48FFF7EAFE10BD10B579487F4A91
:1007800006CA06C008210838FFF7EDFE7549087251
:1007900009217448FFF7DAFE10BD70B504460D4616
:1007A000A52070490870002048700B208870102028
:1007B000C870084604714571CC2088713320C87117
:1007C000C32008723C2048720A216648FFF7CBFE1E
:1007D000644988720B216348FFF7B8FE70BD10B5FD
:1007E0000446A5205F490870002048700A208870E0
:1007F0001E20C87008460471CC20487133208871CF
:10080000C320C8713C20087209215648FFF7ABFE8F
:10081000544948720A215348FFF798FE10BD10B59D
:100820000446A5204F490870002048700A208870AF
:100830001F20C87008460471CC204871332088718D
:10084000C320C8713C20087209214648FFF78BFE7F
:10085000444948720A214348FFF778FE10BD70B53D
:1008600004460D46A5203F490870002048700D2021
:1008700088702020C870200A08714C71280A88717D
:10088000CD71CC20087233204872C32088723C207E
:10089000C8720C213348FFF766FE324908730D21F8
:1008A0003048FFF753FE70BD2DE9F04104460D4678
:1008B00016461F46A5202B490870002048701120BD
:1008C00088702220C870200A08714C71280A88712B
:1008D000CD71300A08724E72380A8872CF72CC20FD
:1008E000087333204873C32088733C20C8731021D9
:1008F0001C48FFF738FE1B49087411211948FFF7FF
:1009000025FEBDE8F0812DE9F04104460D4616466E
:100910001F46A520134908700020487011208870D8
:100920002420C870200A08714C71280A8871CD7182
:10093000300A08724E72380A8872CF72CC2008735F
:1009400033204873C32088733C20C87310210548A6
:1009500016E00000EC010020680100207C0100206E
:1009600000004040040200204C3B0008543B0008BB
:100970005C3B0008643B00086C3B0008743B0008CB
:10098000FFF7F1FDCC4908741121CB48FFF7DEFDDC
:10099000BDE8F08170B504460D461646A520C6494F
:1009A0000870002048700F2088702620C870200A28
:1009B00008714C71280A8871CD71300A08724E7224
:1009C000CC2088723320C872C32008733C2048733F
:1009D0000E21B948FFF7C7FDB74988730F21B64804
:1009E000FFF7B4FD70BD70B504460D461646A52050
:1009F000B1490870002048700F2088702720C87007
:100A0000200A08714C71280A8871CD71300A087269
:100A10004E72CC2088723320C872C32008733C20E9
:100A200048730E21A448FFF79EFDA34988730F2148
:100A3000A148FFF78BFD70BD2DE9F04704460D4638
:100A400016461F46DDE90889A5209B49087000204D
:100A50004870152088702820C870200A08714C71D1
:100A6000280A8871CD71300A08724E72380A88726D
:100A7000CF724FEA1820087381F80D804FEA1920D1
:100A8000887381F80F90CC20087433204874C320F9
:100A900088743C20C87414218748FFF764FD864998
:100AA000087515218448FFF751FDBDE8F0872DE951
:100AB000F04704460D4616461F46DDE90889A52085
:100AC0007D49087000204870152088702920C87062
:100AD000200A08714C71280A8871CD71300A087299
:100AE0004E72380A8872CF724FEA1820087381F864
:100AF0000D804FEA1920887381F80F90CC2008747C
:100B000033204874C32088743C20C87414216A4878
:100B1000FFF729FD6849087515216748FFF716FD9D
:100B2000BDE8F08710B5A520634908700020487023
:100B3000092088702E20C870CC200871332048719D
:100B4000C32088713C20C87108215B48FFF70BFD6A
:100B50005949087209215848FFF7F8FC10BD2DE9E2
:100B6000F04107460D461646B846404600F039F9B2
:100B700004460E34A52050490870200A48708C7035
:100B80003020C870280A08714D71300A8871CE7102
:100B900041464948083000F039F9641FCC204649E5
:100BA00008553321444A601C1154C321A01C115420
:100BB0003C21E01C1154211D1046FFF7D4FC3E4A95
:100BC000211D5054611D1046FFF7C0FCBDE8F081A7
:100BD000F8B504460D4616468DF8004000208DF805
:100BE0000100324629466846FFF7B9FFF8BD2DE9F6
:100BF000F04107460D461646B846404600F0F1F86B
:100C000004460E34A5202C490870200A48708C70C8
:100C10007020C870280A08714D71300A8871CE7131
:100C200041462548083000F0F1F8641FCC202249E5
:100C300008553321204A601C1154C321A01C1154B3
:100C40003C21E01C1154211D1046FFF78CFC1A4A70
:100C5000211D5054611D1046FFF778FCBDE8F0815E
:100C600010B50A21154801F039FA1321144801F092
:100C700035FA002303220221124801F0B1FA04469A
:100C8000114A124901F004FC10BD70B504460D462E
:100C900000BF94F90000401C04D135220C490DA07E
:100CA00002F018FB00BF1DB1E1686068086002E057
:100CB00021696068086070BD04020020680100209E
:100CC0007C0100209001002000000008052200089F
:100CD0007C3B00086F626A2D3E70696E20213D20CA
:100CE0002850696E4E616D65294E43000648804765
:100CF00006480047FEE7FEE7FEE7FEE7FEE7FEE701
:100D0000FEE7FEE7FEE7FEE7491E0008ED000008EB
:100D1000042104A002F0E0F80349086003490860D8
:100D2000FFF7EAF93A747400800400206C04002094
:100D300038B505468DF800000C46086800230122EE
:100D4000694602F04FF910B14FF0FF3038BDE0684E
:100D5000401CE060284638BD70B50446006802F0CB
:100D6000A7F84FF0FF35002805DBE168206802F0A6
:100D700025F9002801DA284670BD002070BD10B5A5
:100D8000431A934209D28318881803E010F8011D12
:100D900003F8011D521EF9D210BD40EA01039B0762
:100DA00003D009E008C9121F08C0042AFAD203E0E0
:100DB00011F8013B00F8013B521EF9D210BDD2B22E
:100DC00001E000F8012B491EFBD270470022F6E734
:100DD00010B513460A4604461946FFF7F0FF2046B1
:100DE00010BD421C10F8011B0029FBD1801A70476E
:100DF00010B5002200E0521C835C8C5CA34201D140
:100E0000002BF8D1D8B2E1B2401A10BD034611F858
:100E1000012B00F8012B002AF9D11846704730B594
:100E200005460020034600E05B1C934205D2EC5CC3
:100E3000C85C201A01D1002CF6D130BD0FB400B52A
:100E40008DB010A909900B9000914FF0FF300A90DF
:100E500000200C9005480690054807906A4609A8AE
:100E60000F9900F069F90DB05DF814FB55110008F9
:100E7000731100082DE9FF5F1D464FF0FF3BD5E9D8
:100E8000014691465F464FF00008A9697F1C019812
:100E90008847296A824688470028F6D11AF101005E
:100EA0000CD024F4C064002E19DD600614D5BAF10C
:100EB0002B0F09D0BAF12D0F0ED103E0584604B024
:100EC000BDE8F09F44F48064A9697F1C01988847BD
:100ED000761E8246002E02DDBAF1300F03D0B9F142
:100EE000000F26D032E0761EA96944F400747F1CFE
:100EF000019888478246002E05DDBAF1780F06D0AA
:100F0000BAF1580F03D0B9F1000F10D01EE0B9F1BB
:100F1000000F02D0B9F1100F18D1761EA96924F480
:100F200000747F1C019888478246102002E0082048
:100F300000E00A20814609E008FB0908761EA9693D
:100F400044F400747F1C019888478246002E05DD1A
:100F50004946504600F0DCF80028EDDAE9690198CE
:100F60008847A00502D46FF00100A8E7E00727D169
:100F7000600614D5600502D5C8F1000000E04046C7
:100F8000296801F104022A600968220501D5087068
:100F900016E0220701D5088012E0086010E02868FA
:100FA00000F1040129600068210502D580F8008065
:100FB00006E0210702D5A0F8008001E0C0F800801B
:100FC00038467CE770B5054C054D03E020682044A9
:100FD0008047241DAC42F9D170BD0000F4400008E8
:100FE000FC40000880EA010210B502F00043400016
:100FF00026D04A0023D04FEA106101EB1261C0F302
:101000005600C2F3560240F4000042F40002A0FB76
:101010000220A1F17F014FEA0040140401D000F149
:10102000010050EA124001D44000491EC2B20C0631
:1010300004EBD010401C4008802A02D003E00020BE
:1010400010BD20F00100002900DA0020184310BD77
:1010500000F0004220F00040C10DC0F3160040F443
:1010600000007F2901DA00207047962903DCC1F1D6
:101070009601C84001E096398840002AF4D04042E9
:10108000704730B50B46014600202022012409E0BC
:1010900021FA02F59D4205D303FA02F5491B04FA31
:1010A00002F52844151EA2F10102F1DC30BD2DE944
:1010B000F05F0546002092469B46884606468146DC
:1010C00040241BE0284641464746224600F03DFAB0
:1010D00053465A46C01A914110D31146184622462B
:1010E00000F024FA2D1A67EB01084F462246012032
:1010F000002100F01BFA17EB00094E41201EA4F15D
:101100000104DFDC484631462A464346BDE8F09FED
:101110003A2800D2303820F02002412A01D3A2F12F
:101120003700884201D34FF0FF3070470268114406
:101130001378016018467047D16004495161044931
:10114000116200211161114600F026BA2D1100082C
:101150008F150008426842B1016811F8013B23B1C4
:10116000521EC0E90012184670470121C160881E56
:10117000704742685AB1C368016843B983688B42BB
:1011800005D0491E521CC0E90012002070474FF0E4
:10119000FF30704700487047480100207047704793
:1011A0002DE9FE4F804681EA0300C00F0C460090F7
:1011B00021F0004123F00045B8EB0200A94105D21F
:1011C0004046214690461C460B46024623F000400E
:1011D000104304D14046214603B0BDE8F08F270DEF
:1011E000C7F30A00C3F30A510290401A0190402845
:1011F00066DAC3F3130040F4801B0098924620B1D6
:101200000023D2EB030A63EB0B0B01985946C0F1A4
:101210004002504600F08AF906460D4650465946AF
:10122000019A00F0A2F910EB08006141002487EA5E
:10123000115284EAE7731A433BD0009A3AB3019AF9
:10124000012A4FEA075210DC001B61EB02014FF04C
:10125000004202EA0752CDE90042001C41F580112C
:1012600032462B4600F03BFBB6E7001B61EB020168
:10127000001C41F5801300185B412018A2F50017EF
:1012800047EB030140EAD570B6196D4111E06D08D6
:101290004FEA360645EAC0754FEA0752001B61EB7C
:1012A0000201001C41F5801149084FEA3000001985
:1012B000514132462B4603B0BDE8F04F00F002BB6F
:1012C0000098012240000023D0EB020263EBE073A0
:1012D000009821464FEAE074B8EB000061EB04018E
:1012E000E9E783F000435BE781F0004158E72DE92F
:1012F000FE4F81EA030404F0004421F00041009411
:101300004FF0000B23F0004350EA010402D052EAF0
:10131000030404D10020014603B0BDE8F08FC3F3FD
:101320000A54C1F30A552C44A4F2F3340194A0FBEF
:101330000254C1F3130141F48011C3F3130343F4C6
:10134000801301FB024400FB034E840A970A44EA1F
:10135000815447EA8357A4FB076802958D0A05FB71
:1013600007854FEA932C04FB0C542705029D4FEA96
:10137000065847EA1637B5EB08056EEB070C870EE3
:10138000920E47EA811742EA8312A7FB0201B6EBED
:101390000B0164EB00042B0D43EA0C335E1844EBA5
:1013A0001C50DA465146E7FB0201C5F313044FEA2D
:1013B0000B3343EA14534FEA0432019C43EA060319
:1013C000A4F10C040294009CCDE900B400F087FA6B
:1013D000A2E72DE9F04D81EA030404F0004B21F06F
:1013E000004514464FF0000A23F0004150EA050280
:1013F00020D054EA01021DD0C5F30A570246C5F3B6
:101400001303C1F31300C1F30A5640F4801543F4EB
:101410008013A7EB0608101BD64608F2FD3873EBC5
:10142000050002D308F1010801E092185B41B8F110
:10143000000F03DA00200146BDE8F08D00204FF4D4
:101440008011064684460EE0171B73EB050705D393
:10145000121B63EB050306434CEA010C49084FEAF3
:10146000300092185B4150EA0107EDD152EA0300C7
:1014700012D082EA040083EA0501084303D1002266
:101480004FF0004308E0101BAB4102D201220023C1
:1014900002E06FF0010253101AEB06004CEB08510A
:1014A00010EB0A0041EB0B01BDE8F04D00F00ABA69
:1014B000C1F30A52C1F3130140F2FF3341F480112A
:1014C0009A4202DA00200146704740F233439A42C2
:1014D000A2F2334202DC524200F037B800F026B8E4
:1014E00030B5002904DB4FF00044404264EB0101B9
:1014F000002B04DB4FF00044524264EB030399429B
:1015000008BF904230BD0000064C074D06E0E06881
:1015100040F0010394E8070098471034AC42F6D33A
:10152000FEF7E8FDD4400008F4400008202A04DB60
:10153000203A00FA02F1002070479140C2F12003E6
:1015400020FA03F3194390407047202A04DB203A25
:1015500021FA02F00021704721FA02F3D040C2F1D3
:1015600020029140084319467047202A06DBCB171A
:10157000203A41FA02F043EAE07306E041FA02F34E
:10158000D040C2F120029140084319467047C0B2D2
:101590004FF4F05100F0F6B92DE9F34F8BB04FF056
:1015A000000801F10C000C464FF0010B46460DF10E
:1015B000080A0190626901210198904705002DD029
:1015C000252D2CD0216A8847C0B16269012101987C
:1015D0009047216A88470028F7D1411E6269019827
:1015E000904700E0761CA1690B988847216A8847DC
:1015F0000028F7D1E1690B988847DBE7A1690B98D0
:1016000088470746A84201D1761CD3E7E1690B98C9
:1016100088477F1C02D1B8F1000F6FD045E1002749
:1016200062693D463946019890472A2804D162698B
:101630000121019890470125DFF884926269012118
:1016400001989047A0F130010A290AD24F45E5DC04
:1016500007EB870100EB4107303FDFD445F0100571
:10166000ECE7E90601D46FF000476C280AD04C285B
:1016700014D0682815D06A280DD074281CD07A2878
:101680001AD01DE062690121019890476C2802D0B0
:1016900045F0040514E045F002050DE045F0200595
:1016A0000AE06269012101989047682802D045F05C
:1016B000080505E045F4006562690121019890473D
:1016C000C4E9015765283DD019DC582879D00CDCD5
:1016D000452837D004DC252826D0412831D131E0F7
:1016E00046282FD047282CD12CE05B287FD06128BA
:1016F00028D063287BD0642823D159E0CFE06F281D
:1017000047D008DC66281DD067281BD0692821D067
:101710006E2816D127E0702844D0732867D075282A
:1017200046D078280DD14CE0A1690B988847054632
:1017300025283FF469AFE1690B9888476D1C3FF499
:101740006AAFB2E023466A466FF001000B99AFF32F
:1017500000809DE045F040006060A80723464FF000
:10176000000235D43DE0206800F1040121600068EA
:10177000290501D506701DE7290701D5068019E75F
:10178000A90704D54FEAE671C0E9006112E70660D7
:1017900010E745F040006060A80723464FF00802BC
:1017A00016D41EE040F60E0125EA0100606016E046
:1017B00045F040006060A80723464FF00A0207D4B6
:1017C0000FE045F040006060A80708D523461022CE
:1017D0006FF001000B99AFF3008059E007E023465A
:1017E00010226FF001000B99FFF744FB50E04FF01F
:1017F00000094F464B46632802D05B2806D040E0E4
:10180000E80601D40120A06001273AE062690121C5
:10181000019890475E2805D14FF001096269494659
:1018200001989047216939B900210B46524642F888
:101830002130491C0829FADBB0B3216969B9C11705
:1018400000EBD1614B110AEB830221F01F01411A19
:1018500001201368884003431360626901210198E5
:1018600090475D28E8D1B9F1000F09D0002051461A
:1018700051F82020D24341F82020401C0828F7DBF3
:1018800002AB224600976FF001000B99AFF3008086
:1018900000280CDA401C08D1BBF1000F05D04FF036
:1018A000FF300DB0BDE8F08FFFE74046F9E7E907EC
:1018B00001D108F1010806444FF0000B7AE6000060
:1018C000CCCCCC0C10B5002B08DA401C41F1000147
:1018D00092185B411A4301D120F0010010BD2DE99F
:1018E000F04D92469B4611B1B1FA81F202E0B0FA96
:1018F00080F220329046FFF719FE04460F4640EA78
:101900000A0041EA0B0153465A46084303D12046D8
:101910003946BDE8F08D114653EA010015D0C8F1F3
:1019200040025046FFF711FE05460E465046594606
:101930004246FFF7FBFD084301D0012000E00020F4
:10194000054346EAE0762C4337430A984FEA44536E
:10195000A0EB08004FEAD4240A304FF0000244EA1A
:1019600047544FEAD72502D500200146D1E70105AB
:1019700010196941DDE9084500196941BDE8F04DDC
:10198000A0E700007F2801D9002208E0064A02EB08
:101990005002C007127800D1120902F00F02012094
:1019A00090400840704700006C3F000810B501F0FF
:1019B000C2FC01F0BFFCBDE81040FEF7EDBC002109
:1019C00000F008BC0029816814BF41F0010121F03A
:1019D00001018160704701460020896811F0040F01
:1019E00018BF0120704701460020896811F0080FD8
:1019F00018BF012070470000426891F804C022F42B
:101A0000807222F470220B6842EA0C221A43426070
:101A100082680B4B1A40D1E902C343EA0C0391F8E8
:101A200005C042EA4C021A438260C26A097C22F471
:101A30007002491EC9B242EA0151C16270470000FA
:101A4000FDF7F1FF816841F008018160704781680E
:101A500041F00401816070472DE9F001CB7800224C
:101A600003F00F0C13F0100F1CBF8B7843EA0C0C23
:101A70000B780F260125002B18BF04681AD000BF71
:101A80000F8805FA02F31F409F420FD1970006FA14
:101A900007F824EA08040CFA07F73C43CF78282F0C
:101AA00008BF436102D0482F08BF0361521C082AB7
:101AB000E6D304600A88FF2A87BF44680022BDE895
:101AC000F001704702F108030F8805FA03F31F4085
:101AD0009F420FD1970006FA07F824EA08040CFA8F
:101AE00007F73C43CF78282F08BF4361CF78482FB2
:101AF00008BF0361521C082AE4D34460BDE8F0012A
:101B00007047000070B4194A10F0004F14BFD36939
:101B10005368C0F303444FF4401C3CEA00054FEA0D
:101B2000505C4FEA0C1C86B206FA0CFC16D010F47E
:101B3000801F08BF23EA0C0303D0032505FA04F431
:101B4000A34343F07063002918BF4CEA030310F06D
:101B5000004F14BFD361536070BC7047546823F0CA
:101B6000706324F070645460EDE7000000000140F1
:101B70002DE9F041184D0E4607462C682868B0F153
:101B8000006F23D12146C1F10050AC068210002A1B
:101B9000C4BF3B22B2EBA00F04DCEC222046FFF7CF
:101BA000EEF810E0086820605FF0010004EB8003AD
:101BB00051F8202044F8202001EB8002801C52685C
:101BC0005A603B28F2D34FF00050286004EB8700A6
:101BD0000664BDE8F081000008ED00E003494A68B2
:101BE00022F4404210434860704700000010024059
:101BF000044A0029D16914BF084321EA0000D061DA
:101C00007047000000100240044A0029916914BF87
:101C1000084321EA00009061704700000010024074
:101C2000254910B44A6812F00C03244A18BF042B4B
:101C300001D0082B01D0026015E04A684B6802F41D
:101C400070124FF0020C13F4803F0CEB924203D061
:101C50004B6813F4003F03D0194B5A43026002E073
:101C6000164B5A4302604A680F2303EA1212154BBF
:101C70009A5CD0F800C02CFA02F24260D1F804C09D
:101C8000072404EA1C2C13F80CC022FA0CFCC0F840
:101C900008C0D1F804C004EADC2C13F80C30DA4098
:101CA000C2604968032303EA9131074B595CB2FBD8
:101CB000F1F1016110BC70470010024000127A007F
:101CC00000093D00F8000020F400002082B000214F
:101CD0000091019129490A6822F480320A600028A3
:101CE000086814BF40F4802020F480200860086851
:101CF00040F480300860086800F4003001900098DB
:101D0000401C0090019818B90098B0F5A06FF2D16E
:101D1000086810F4003004BF02B070471848026829
:101D200042F010020260026822F0070202600268BC
:101D300042F002020260486820F47C104860486863
:101D400040F4823040F4E0104860086840F0807051
:101D50000860086810F0007FFBD0486820F003009E
:101D60004860486840F002004860486800F00C0095
:101D70000828FAD1012002B070470000001002408C
:101D80000020024010B5002450B101280CD00228D8
:101D900010D0032812D00B4801F0B2F9204610BD34
:101DA0000121094C042002E0084C01210820FFF722
:101DB0002BFFF3E70121064C1020F8E70121054C29
:101DC0002020F4E7803E000800080140000C01409C
:101DD000001001400014014016494868164A10F0EE
:101DE0000C03164818BF042B01D0082B01D0026049
:101DF00015E04A684B6802F470124FF0020C13F4BD
:101E0000803F0CEB924203D04B6813F4003F03D0A9
:101E10000B4B5A43026002E0074B5A430260496889
:101E2000084AC1F30311515C026822FA01F1016012
:101E3000704700000010024000127A000C010020E0
:101E400000093D001001002008B52C4B186840F037
:101E50000100186058682A4908405860186820F442
:101E6000102020F080701860186820F4802018601E
:101E7000586820F4FE0058604FF41F009860214914
:101E8000D80308600120FFF721FF002818BF08BD14
:101E90000020FFF71BFF002818BF08BD002000909E
:101EA0001948016841F010010160016821F0070143
:101EB0000160016841F002010160586820F47C1063
:101EC0005860586840F4806040F4601058601868AA
:101ED00040F080701860186810F0007FFBD05868E0
:101EE00020F003005860586840F0020058605868BD
:101EF00000F00C000828FAD108BD000000100240D4
:101F00000000FFF808ED00E000200240C943018214
:101F100070470029018814BF41F0010121F001013F
:101F200001807047038A002280890B4200EA010089
:101F30001CBF0028012210467047002A828914BF66
:101F4000114322EA010181817047818670470000B8
:101F500010B40288234BDFF890C0984218BF604548
:101F600011D0B0F1804F1CBFA0F18044B4F5806463
:101F700009D0A0F18044B4F500641CBFA0F18044F6
:101F8000B4F5406403D14C8822F070022243A0F1E2
:101F90008044B4F580541CBFA0F18044B4F5A05433
:101FA00003D0CC8822F44072224302808A88828542
:101FB0000A880285984218BF60450DD0A0F1804282
:101FC000B2F5A0321FBFA0F18042B2F5A232A0F15B
:101FD0008042B2F5A43201D1097A018601218182C1
:101FE00010BC7047002C0140003401404FF6FF71D7
:101FF000818000210180C1804180017270470029E9
:10200000818914BF41F4005121F40051818170474E
:102010000246002012880A4218BF012070470000C3
:1020200030B50446008A85B00D464CF6FF71084075
:10203000E98808432082A0894EF6F3110840A98858
:102040002A8911436A8910430843A081A08A4FF668
:10205000FF410840A9890843A0826846FFF7E0FDD8
:10206000A4F18040B0F59C300CBF03980298A18980
:1020700011F4004F00EBC00101EB0010296814BF00
:1020800049008900B0FBF1F0114A6FF0180CA2FB77
:102090000031490909010B0903FB0CF300EB830034
:1020A000A38913F4004F4FF0320314BF03EBC000B9
:1020B00003EB0010A2FB00204FEA501014BF00F009
:1020C000070000F00F000843208105B030BD00007C
:1020D0001F85EB51C1F308018180704770B504463C
:1020E0000D4614212046FEF771FE2946204601F0D8
:1020F00095F8204670BD70B504460D4600BF2946D0
:102100002046FEF7C2FD00BF204670BD10B409494D
:1021100001600021084B10228C4600BF53F821407B
:10212000844208BF43F821C0491C521EF6D110BC9E
:1021300070470000B43F00080404002010B50C46AE
:10214000001D01F059FB204610BDC1EBC10100EBA1
:102150008100203000F032B870B504460D46001DF5
:1021600001F05EFAA56570BD70B50E4610490160BC
:10217000002141608160C160016141618161C16193
:10218000154602231C220B49203000F09AF9A0F1D9
:1021900020044FF41650A0652A463146201D01F058
:1021A00071FA22460449201D01F01AFB204670BD39
:1021B000E03F0008BF1900084B210008016801B189
:1021C00008474368002B08BF704700F10801826987
:1021D000184610470022426082610160704700008B
:1021E00010B51C46FFF7C0FF21465C3000F038F800
:1021F000034940F85C1D4C3101663439C16510BD9E
:10220000F03F000810B55C3000F04CF85C3810BDB1
:1022100070B504460D464069FEF79EFD284661698B
:10222000BDE87040FEF784BD002070470020704775
:10223000002070472DE9F0418D180F4606460C46E8
:10224000A94209D0306814F8011B426A3046904711
:10225000401C18BFAC42F5D1E01BBDE8F081000086
:1022600010B584B000F07AF804460B482060343092
:10227000606000206061224608A1684600F0E8F82E
:1022800007A1684600F064F900216061AFF30080A7
:1022900004B0204610BD00004C4000083A257000F4
:1022A000772B000010B5044605482060343060608C
:1022B000606900F04AF92046BDE8104000F060B8BF
:1022C0004C400008007B704770B506460B480D4631
:1022D000046884B1A06858B12A463146FEF79FFDD4
:1022E00030B9A068FEF77DFDA84201D1204670BD3F
:1022F0006468002CEED1002070BD00003C0100207D
:10230000064B03600023C0E901310273002908BFB6
:10231000704703490A6842600860704790400008AF
:102320003C0100200B4901608168002908BF70470B
:10233000094A1168814202BF4168116070474A68CA
:10234000824203D0114652688242FBD142684A6001
:1023500070470000904000083C01002010B5064A7C
:1023600040F8042B0022FFF7CBFF044940F8041D7E
:102370002C31416010BD0000B43F0008A0400008AF
:1023800010B5001DFFF7CEFFBDE81040001FFFF79E
:10239000BDBE10B50446406828B1FFF793FF012881
:1023A00004BF606810BD002010BD10B50446406831
:1023B00010B1FFF787FF08B1002010BD606800284A
:1023C00018BF001F10BD4068002818BF01207047CB
:1023D00010B54068002808BF10BDFFF773FF002844
:1023E0000CBF0120002010BD0068704710B50446E6
:1023F00000202060606008782F280DD1487858B1FF
:102400004B1C00212360226810782F2806D038B199
:10241000491C501C2060F6E7204610BD501C20606F
:102420001846FFF751FF6060204610BD5C38FFF78B
:1024300085BE00000FB4024610B504A9034B0398F3
:1024400000F078F910BC5DF814FB0000310D0008B5
:102450000FB4084B10B504A902AA039800F06AF95A
:10246000044602A9002000F008FD204610BC5DF8DB
:1024700014FB00007B2E000830B414460D460246C3
:102480002146284630BC014B00F054B9310D0008FC
:102490002DE9F041074690460E460025102000F039
:1024A000E3FE04000BD0C4F80C80C4E90176FEF70B
:1024B00071FE0168216004602846BDE8F0810125B5
:1024C000FAE72DE9F0411C4617460E00804606D07B
:1024D000054602E02846B0473D44641EFAD2404615
:1024E000BDE8F0812DE9F0410646FEF753FE804637
:1024F00013E026B1E068B04201D025460EE0206826
:102500002860D4E90101D8F800708847204600F01F
:1025100013FED8F80000B84200D045462C68002CC5
:10252000E7D1BDE8F0810020FEF739BE02E008C81F
:10253000121F08C1002AFAD170477047002001E03D
:1025400001C1121F002AFBD17047006800F09ABC3D
:1025500070B506460D46142000F086FE040009D032
:102560001421FEF733FC224629463046BDE8704070
:1025700000F0B0B8002070BD2DE9FF5FDDE902205A
:10258000010DDDF838B0024310D10F9801244CA2A0
:10259000012808D0002100980F9BC0E90021C0E964
:1025A0000243BDE8FF9F6FEA0B01F4E7A1F2FF31A0
:1025B00044F6105041430D140F9801280ED0A5EB9E
:1025C0000B00401C4FF000043E4EDFF8FC90B0F1D1
:1025D000000AA04605DACAF1000717E0CBF10000B7
:1025E000F0E7074612E0F80707D022463346404698
:1025F0004946FEF77CFE8046894622463346104611
:102600001946FEF774FE04460E467F10002FEAD1ED
:10261000DDE90201BAF1000F42464B4602DAFEF74D
:1026200066FE01E0FEF7D5FE04460E460022274B6B
:10263000FEF756FF03D84FF0FF30014607E00022B7
:10264000234B20463146FEF7ABFDFEF731FF102449
:1026500009E0002C0ADB0A220023FEF728FD019B7B
:1026600030321A55641E50EA0102F2D1641C019AFC
:10267000C4F1110314440F9A012A09D0012208431E
:1026800001D15B450FDD4FF0000205F101050DE0C2
:10269000084303D1A3EB0B056D1E09E000204FF0AA
:1026A000110B0F9088E701DA00226D1E002A83D0FB
:1026B00000980F99C0E90231C0E9004571E70000B8
:1026C00030000000000024400000F03F0000F04314
:1026D0000000E03F70B50646106815460C4608B18C
:1026E00000F0D0FB14F8010B612808D0722802D04A
:1026F00077281CD101E000210EE004210CE0082124
:102700000AE0641C2B2802D0622810D102E041F0BC
:10271000020101E041F0010120780028F1D13046AA
:1027200000F0DAFB411C02D02860284670BD002072
:1027300070BD00002DE9FF4F95B09B4689460646C7
:10274000002512E2252878D10024761CF94A274674
:10275000012105943378203B01FA03F0104202D0A6
:102760000443761CF6E730782A2811D06FF02F0347
:102770003078A0F13002092A16D8059A44F00204F4
:1027800002EB820203EB42021044761C0590EFE755
:1027900059F8042B0592002A03DA504244F40054FD
:1027A000059044F00204761C30782E2816D116F8D5
:1027B000010F44F004042A280DD06FF02F02307866
:1027C000A0F13003092B09D807EB870302EB430381
:1027D000C718761CF3E759F8047B761C30786C2810
:1027E0000FD006DC4C2817D068280DD06A2814D1E9
:1027F00004E0742810D07A280FD10DE044F40014BE
:102800000AE044F4801401E044F4401472788242F7
:1028100002D1761C04F58014761C307866280BD023
:1028200013DC582877D009DC002875D04528F6D06D
:102830004628F4D047281AD19FE118E0632835D004
:10284000642879D0652812D197E1702873D008DC0C
:102850006728F1D069286FD06E280DD06F2806D177
:10286000B5E073282CD0752875D0782874D05A46D6
:10287000179990476D1C76E1C4F30250022809D0E5
:1028800003280DD0D9F8001004280DD00D6009F1EF
:10289000040968E1D9F80010EA17C1E90052F6E727
:1028A000D9F800100D80F2E70D70F0E719F8041B5D
:1028B0008DF8001000208DF80100EA46012003E0A9
:1028C00059F804AB4FF0FF3061074FF0000102D41C
:1028D0000DE008F101018846B9420FDA8045F8DBC6
:1028E0001AF808100029F4D108E008F1010188461F
:1028F0008142FADB1AF808100029F6D105985B46E8
:10290000A0EB080721463846179A00F09EFA2844A3
:1029100000EB080507E04DE02BE10DE01AF8010B94
:102920005A4617999047B8F10108F7D25B462146FD
:102930003846179A14E142E00A220092C4F3025288
:102940004FF0000A022A08D059F804CB032A4FEAB4
:10295000EC710AD00DE029E02AE009F1070121F02D
:102960000702F2E802C1914609E00FFA8CFC4FEA37
:10297000EC71042A03D14FFA8CFC4FEAEC71002968
:1029800007DA0A460021DCF1000C61EB02012D227E
:1029900002E0220504D52B228DF80420012203E059
:1029A000E20701D02022F7E7904653E00A2102E037
:1029B00010220DE010214FF0000A00910BE01022D0
:1029C0004FF0000A44F004040827009203E00822B4
:1029D0004FF0000A0092C4F30252022A05D059F8BF
:1029E00004CB0021032A08D009E009F1070121F0F6
:1029F0000702F2E802C1914605E01FFA8CFC042AA6
:102A000001D10CF0FF0C4FF00008220722D57028EE
:102A100027D0009B83F0100353EA0A0309D15CEA34
:102A2000010206D030228DF804208DF80500022224
:102A30009046009B83F0080353EA0A030AD15CEA3C
:102A4000010201D1620705D530228DF804204FF034
:102A500001087F1E582809D037A003900EA80290C5
:102A600013E040228DF804200122E1E737A0F4E7CB
:102A700053466046009AFEF71AFB84460398825C30
:102A80000298A0F10100029002705CEA0100EFD10F
:102A9000029806A9A1EB000000F1200A600702D508
:102AA00024F4803400E00127574502DDA7EB0A003B
:102AB00000E0002000EB0A01009005984144A0EBE3
:102AC00001000590E00306D45B462146179A05985D
:102AD00000F0BBF90544002706E001A85A46C05D96
:102AE000179990476D1C7F1C4745F6DBE0030CD51A
:102AF0005B462146179A059800F0A7F9054404E0C3
:102B000030205A46179990476D1C0099481E009036
:102B10000029F5DC08E0029802995A460078491C21
:102B20000291179990476D1CBAF10001AAF1010AB0
:102B3000F1DC6BE1092801003031323334353637AE
:102B400038396162636465660000000030313233F9
:102B50003435363738394142434445460000000099
:102B600000F060F9054406F10106307800287FF492
:102B7000E9AD19B02846BDE8F08F620700D40627FA
:102B800009F1070222F0070CFCE80223E14603F0FA
:102B900000485FEA080C02D00FF27C2C0DE05FEADF
:102BA000045C02D50FF2742C07E05FEAC47C02D00B
:102BB0000FF26C2C01E0AFF2700C4FF0FF3823F0F5
:102BC0000043CDF850C065280CD006DC452809D05C
:102BD00046281DD047283ED13EE0662818D06728F9
:102BE00039D139E00021112F01DB112000E0781CE0
:102BF000CDE9000106A90EA8FFF7BEFCDDE90F0133
:102C00000E9A03910021009207F1010A04914EE00F
:102C10004FF000400097CDE9011006A90EA8FFF77C
:102C2000ABFCDDE90F0203920E9B11990022DDF847
:102C30000CA00093049219B907F1010100EB010AFD
:102C4000B7EB0A0004D4C0F1FF3007F1010A049089
:102C5000AAEB0700019046E0012F00DA01270021CE
:102C6000112F01DD112000E03846CDE9000106A951
:102C70000EA8FFF781FCDDE90F010E9A03910021F8
:102C800004910092BA4621070CD40399514500DA09
:102C90008A46BAF1010F05DD009AAAF10101515CE3
:102CA000302908D0B84202DA10F1040F06DA012107
:102CB000CDE9011017E0AAF10101E9E7002805DCE0
:102CC000049901440491AAEB000102E0411C514522
:102CD00000DD8A460499A0EB010000F1010001909B
:102CE0004FF000400290200704D40198504501DBCA
:102CF000CDF8048000208DF84F0002980DF14F07A9
:102D0000B0F1004F25D02B200E9002984FF0020812
:102D100000280CDA404202902D200E9007E00A2194
:102D20000298FEF7AEF93031029007F8011DB8F1B4
:102D30000001A8F10108F2DC02980028EFD1791E09
:102D40000E980870307800F0200040F0450007F839
:102D5000020D12A8A0EB070000F1070814980078F4
:102D600000B1012000EB0A01019801EBE071059828
:102D70004144A0EB0100A0F101000590E00306D45E
:102D80005B462146179A059800F05FF805441498B1
:102D9000007820B15A461799904705F10105E003E4
:102DA00023D55B462146179A059800F04EF8054456
:102DB0001BE00498002807DBDDE90301884203DDFE
:102DC0000098405C179901E0179930205A469047C7
:102DD00004986D1C401C04900198401E019004D181
:102DE0002E205A46179990476D1CBAF10001AAF19E
:102DF000010ADEDC05E017F8010B5A4617999047E7
:102E00006D1CB8F10001A8F10108F4DC5B46214615
:102E1000179A0598A4E600002D0000002B00000082
:102E2000200000002DE9F041044600251E4617460B
:102E3000880405D406E039462020B04705F1010595
:102E4000641EF8D52846BDE8F0812DE9F04104461E
:102E500000251E469046C80301D5302700E02027F4
:102E6000880405D506E041463846B04705F101051E
:102E7000641EF8D52846BDE8F0810A68531C0B6033
:102E8000107070470328BCBF00207047074900221C
:102E900001EB800151F80C0C41F80C2C002804BF08
:102EA0004FF0FF307047016849680847040400206C
:102EB0000328BCBF00207047064901EB800050F892
:102EC0000C0C002804BF4FF0FF30704701684969BF
:102ED0000847000004040020F0B50E4683B0044605
:102EE00032A1FDF785FF00281CBF0025304F06D01A
:102EF00057F8250048B16D1C102DF9D347E02D4936
:102F00000868421C0A6003B0F0BD102D3FD2207843
:102F10003A2811D021466846FFF768FA6846FFF75D
:102F200052FA002833D06846FFF752FA0028684664
:102F300009D0FFF73AFA23E06A461FA12046FDF7C1
:102F40007DFF00981CE0FFF724FA00B316F0020F93
:102F500018BF02241FD000BF16F00C0F18BF44F496
:102F6000007416F0040F18BF44F4806406466846E7
:102F7000FFF73AFA014630682246836830469847A0
:102F800000281FBF47F82500E81C03B0F0BD4FF034
:102F9000FF3003B0F0BD16F0040F18BF0124DBD1E1
:102FA00016F0080F14BF09240024D5E73A74740002
:102FB00004040020080100203A2570000328BCBF4B
:102FC00000207047064A02EB800050F80C0C0028E5
:102FD00004BF4FF0FF3070470268136900221847A2
:102FE0000404002070B514460E46032813DA124874
:102FF000006820B903220221104800F043FB00259D
:10300000002C06D9715D0D4800F0F6FB6D1CAC423A
:10301000F8D820460DE00A4901EB800050F80C0C6E
:10302000002804BF4FF0FF3070BD01680B683146C7
:103030009847201A70BD0000240100205004002091
:103040000404002030B50D46044685B023492846C7
:1030500000F08CFA2060401C04D14222204921A0BB
:1030600000F038F91D49284600F0AEFA23482571D2
:10307000016800291CBF05B030BD0125056024682A
:10308000E803FEF7ABFD01214802FEF7BDFD00217C
:103090004FF460208DF80410CDE9020100918DF805
:1030A00005108DF8105069462046FEF7A5FC012159
:1030B0002046FEF787FC2046FEF7C4FC2046FEF7BC
:1030C00092FC0028FAD12046FEF7C1FC2046FEF70C
:1030D00082FC0028FAD105B030BD0000C43B0008D6
:1030E000903C00086F626A2D3E61646320213D20A0
:1030F000284144434E616D65294E43002001002064
:103100000FB4044810B503AA0299FFF7B5F90120DE
:1031100000F002F88004002004460548FDF71CFE7C
:103120000448FDF719FE002C18BF00F0FBF8FEE77D
:103130006C0400208004002010B5002821D0114B21
:10314000001F0022196803E0814203D80A4649683B
:103150000029F9D152B11368841A9C4204D1006845
:1031600018441060104602E0506000E0186039B169
:1031700002680B1A934203D10B681A440260496833
:10318000416010BD4C01002070B5044690F900006C
:103190000D46401C04D1472209490AA000F09AF8C4
:1031A00094F90000012D05D0BDE870404FF4806116
:1031B00000F0C4B8BDE870404FF4805100F0BEB8D4
:1031C0000C3F00086F626A2D3E70696E20213D2021
:1031D0002850696E4E616D65294E430070B50546F5
:1031E00001700C46481C08BF70BDC4F30310FEF705
:1031F000C9FD06464FF48061204600F09FF804F0B8
:103200000F00012101FA00F0686006F10800A860D3
:103210000830E860001D286170BD000070B50D46E3
:1032200004460026FFF7DAFF681C08BF70BD94F95A
:103230000000401C05D109493522A1F1180000F019
:1032400049F821696068086001212046FFF79CFF6A
:1032500031462046BDE8704000F002B8FC3D000851
:1032600090F9000000F0EAB8F0B50B30154D20F0F1
:1032700007010024144A0FE003688B420BD38B42F2
:1032800005D95E1A43184768C3E9006700E0436840
:10329000136002C004E0021D10680028ECD1204633
:1032A000002802D1286808B10020F0BD064A07486E
:1032B0001060074A121A22F00702C0E90024012018
:1032C0002860D7E7500100204C0100209C0400201A
:1032D000004C002008B500920B46024603A110489E
:1032E000FFF7A8F8BDE8084000F01CB86D626564FF
:1032F000206173736572746174696F6E20666169B1
:103300006C65643A2025732C2066696C653A20252B
:10331000732C206C696E65202564200A0000000073
:103320008004002072B6962000F0D2FB962000F0B8
:10333000CFFBF8E77047FEF74FBD00002DE9F843DB
:1033400005460C46401C04D153222E492EA0FFF7FF
:10335000C1FF2712E6B2C5F30310002405F00F08E1
:10336000002833D0012835D0022839D003283BD09B
:103370002A48FFF7C5FE01210846FEF745FC701EEE
:10338000092805D22648012150F82600FEF7BAFB8D
:10339000012000FA08F0ADF800008DF8037003205A
:1033A0008DF8020069462046FEF756FB1D480D2D9C
:1033B00022D00E2D08BF01211AD00F2D19BF132DB9
:1033C000142D0121184813D0BDE8F8830121174CB2
:1033D000042002E0164C01210820FEF715FCCAE784
:1033E0000121144C1020F8E70121134C2020F4E7B0
:1033F000FEF788FBBDE8F8830121FEF783FBBDE8FB
:10340000F88300009C3E000870696E20213D202852
:1034100050696E4E616D65294E430000803E000884
:10342000583E00080004300000023000000801404F
:10343000000C01400010014000140140F8B50446A2
:103440000E46401C04D17E222F4930A0FFF742FFD8
:10345000C4F3031004F00F050024C0B101281AD0F2
:1034600002281ED0032820D02D48FFF749FE204611
:10347000002E08BFF8BD0321012E08BF482218D036
:10348000022E08BF282214D0032E1ED013E00121E3
:10349000244C042002E0244C01210820FEF7B4FB58
:1034A000E5E70121214C1020F8E70121204C2020E4
:1034B000F4E78DF803200122AA40ADF800208DF832
:1034C00002106946FEF7C8FAF8BD0422082D0CD296
:1034D000D0F800C0AB0099401CEA010F08BFF8BD4E
:1034E00001689A4011430160F8BDD0F804C06B0731
:1034F000DB0E99401CEA010F08BFF8BD41689A40F5
:1035000011434160F8BD00009C3E000870696E20C8
:10351000213D202850696E4E616D65294E430000A3
:10352000803E000800080140000C014000100140EE
:1035300000140140884208BF7047421C04BF08467F
:10354000704710B5491C08BF10BD03A0FFF7D8FD98
:103550004FF0FF3010BD000070696E6D6170206D1E
:1035600069732D6D617463680000000010B5421C22
:1035700004BF4FF0FF3010BD91F90020521C0BD05A
:1035800091F90020824203D14C68601C09D105E00A
:1035900011F90C2F521CF3D14FF0FF3402A0FFF7AA
:1035A000AFFD204610BD000070696E6D6170206E29
:1035B0006F7420666F756E6420666F72207065721E
:1035C0006970686572616C0010B50446401C08BFE4
:1035D00010BD91F90000401C12D000BF91F900000D
:1035E000A04209D189682046FFF7A8FE2046BDE821
:1035F00010400021FFF722BF11F90C0F401CEDD144
:10360000BDE8104001A0FFF77BBD0000636F756C43
:1036100064206E6F742070696E6F75740000000016
:1036200030B585B081600568044600212846FEF764
:10363000E6FCA0680090A089ADF80400208AADF8EF
:103640000600A08AADF808000020ADF80C0094F93F
:103650001900401C04BF0820ADF80A0007D094F9F7
:103660001800401C0CBF04200C20ADF80A0069466D
:103670002846FEF7D5FC01212846FEF7C0FC05B020
:1036800030BD00002DE9F0430F46044685B01646D4
:1036900046493846FFF76AFF054645493046FFF779
:1036A00065FF01462846FFF745FF2060401C04D116
:1036B0006422404940A0FFF70DFE20680025A0F1DC
:1036C0008041B1F59C3104D101218803FEF79CFAB9
:1036D0006560DFF8008120684FF00109404505D1A1
:1036E00001214804FEF784FAC4F804902068A0F190
:1036F0008041B1F5904105D101218804FEF778FAA7
:103700000220606029493846FFF75EFF28493046AD
:10371000FFF75AFF4FF41650C4E9020525616561B1
:1037200027766676266800213046FEF768FCA0689A
:103730000090A089ADF80400208AADF80600A08AA8
:10374000ADF80800ADF80C5094F91900401C04BF06
:103750000820ADF80A0007D094F91800401C0CBFEF
:1037600004200C20ADF80A0069463046FEF758FCEC
:1037700001213046FEF743FC206840451CBF05B0E0
:10378000BDE8F0831448C0F80090144894E80E1087
:1037900000F10C05A5E80E10D4E90412A3694362F8
:1037A000C0E9071205B0BDE8F0830000F43C000852
:1037B0003C3D0008843D00086F626A2D3E756172D1
:1037C0007420213D2028554152544E616D65294E8B
:1037D0004300000000440040240100204404002075
:1037E000034B59604068034941F8202070470000AE
:1037F000240100204404002070B506680D460446EC
:1038000080212068FEF704FC0028F9D0A9B23046D8
:10381000BDE87040FEF75EBC70B51F4806881F4DBE
:1038200001212846FEF77EFB1D4C012806D101210F
:103830002846FEF76BFBA068401CA06002212846CA
:10384000FEF770FB012818BF70BD02212846FEF765
:103850005DFB208858B121882846FEF776FB0122BF
:1038600002212846FEF769FB0020208070BDE06839
:1038700070B14FF6FF712846FEF767FB0122022167
:103880002846FEF75AFB2680E068401EE06070BDC7
:10389000BDE8704000F014B8240800400008004063
:1038A0002C01002002210148FEF730BB0008004037
:1038B000002202210148FEF740BB00000008004042
:1038C00010B5FFF7EFFF0E4C206870B100F01AF84A
:1038D00021680A68101A00280BDCC868206062683A
:1038E000002A1CBF88689047EEE7BDE81040FFF74C
:1038F000DFBF4968BDE81040104600F055B8000031
:103900004001002030B5214C83B0606800282ED1E2
:103910000120014660600420FEF76AF96846FEF760
:1039200065FB4FF6FF70ADF80400194819491A4DB0
:103930000068B0FBF1F0401EADF800000020ADF8CB
:103940000600ADF8020069462846FEF701FB012299
:1039500011462846FEF7F1FA10491E20FEF708F935
:103960000F49E804086001212846FEF7D2FAA06852
:103970000C4A118801EB0041A068138803EB00405A
:10398000884298BF0146F7D903B030BD2C01002012
:103990000C01002040420F000008004019380008C8
:1039A00000E100E0240800402DE9F041384C804659
:1039B00000266068374D84B04FF6FF7700282AD183
:1039C0000120014660600420FEF712F96846FEF708
:1039D0000DFB3148ADF8047030490068ADF8066061
:1039E000B0FBF1F0401EADF80000ADF80260694692
:1039F0002846FEF7ADFA012211462846FEF79DFA49
:103A000027491E20FEF7B4F82649E8040860012182
:103A10002846FEF77EFAA068234B198801EB004286
:103A2000A068198801EB0041914298BF0A46F7D976
:103A30001888A8EB0101002904DC04B0BDE8F041BE
:103A4000FFF73EBF0A14E260218021883F1A8F42AF
:103A50000ED32188084481B22846FEF776FA012267
:103A600002212846FEF769FA268004B0BDE8F081FD
:103A70004FF6FF712846FEF768FA01220221284618
:103A8000FEF75BFA2088C01B208004B0BDE8F081FF
:103A90002C010020000800400C01002040420F00D3
:103AA0001938000800E100E02408004070B507491B
:103AB000FDF798FAFDF7CCFA0446FFF723FF054619
:103AC000FFF720FF401BA042FAD370BD00247449C9
:103AD00070B54FF47A7100FB01F5FFF713FF044650
:103AE000FFF710FF001BA842FAD370BD70B5054662
:103AF000FFF708FF4FEA0004FFF704FF001BA8428E
:103B0000FAD370BD6D6265642F5441524745545FCE
:103B10004E55434C454F5F4631303352422F54414E
:103B2000524745545F53544D2F5441524745545FBB
:103B30004E55434C454F5F4631303352422F6770EC
:103B4000696F5F6F626A6563742E6800A500090083
:103B5000CC33C33CA5000902CC33C33CA500090803
:103B6000CC33C33CA500090ACC33C33CA500090EE5
:103B7000CC33C33CA500090FCC33C33C6D626564F4
:103B80002F5441524745545F4E55434C454F5F4675
:103B900031303352422F5441524745545F53544DB4
:103BA0002F5441524745545F4E55434C454F5F4655
:103BB00031303352422F6770696F5F6F626A65639D
:103BC000742E680000000000002401400000000086
:103BD000010000000024014000000000020000007D
:103BE0000024014000000000030000000024014008
:103BF000000000000400000000240140000000005C
:103C00000500000000240140000000000600000044
:103C100000240140000000000700000000240140D3
:103C2000000000001000000000240140000000001F
:103C300011000000002401400000000020000000EE
:103C40000024014000000000210000000024014089
:103C500000000000220000000024014000000000DD
:103C600023000000002401400000000024000000A8
:103C70000024014000000000250000000024014055
:103C800000000000FF000000FFFFFFFF0000000039
:103C9000433A5C776F726B5C6D6265645C676974F4
:103CA0006875622D6E65775C6C69627261726965B8
:103CB000735C6D6265645C746172676574735C6883
:103CC000616C5C5441524745545F53544D5C5441C0
:103CD000524745545F4E55434C454F5F4631303354
:103CE00052425C616E616C6F67696E5F6170692ED4
:103CF00063000000020000000044004000180000C3
:103D00000900000000380140001800001600000003
:103D100000380140031800001A000000004800406D
:103D2000001800002A0000000048004005180000AC
:103D3000FF000000FFFFFFFF000000000300000085
:103D400000440040000400000A0000000038014068
:103D500000040000170000000038014003040000C8
:103D60001B00000000480040000400002B00000081
:103D70000048004005040000FF000000FFFFFFFFB7
:103D800000000000433A5C776F726B5C6D626564A3
:103D90005C6769746875622D6E65775C6C696272C8
:103DA00061726965735C6D6265645C74617267659C
:103DB00074735C68616C5C5441524745545F535462
:103DC0004D5C5441524745545F4E55434C454F5FFF
:103DD0004631303352425C73657269616C5F617069
:103DE000692E63006F626A2D3E70696E20213D204E
:103DF0002850696E4E616D65294E4300633A2F77F6
:103E00006F726B2F6D6265642F6275696C645C6D97
:103E10006265645C5441524745545F4E55434C457E
:103E20004F5F4631303352425C5441524745545FF4
:103E300053544D5C5441524745545F4E55434C4595
:103E40004F5F4631303352422F6770696F5F6F6248
:103E50006A6563742E680000000000000100000025
:103E60000200000004000000080000001000140020
:103E70004000160000081A0000031800000C1A0089
:103E8000506F7274206E756D626572206973206E5A
:103E90006F7420636F72726563742E00433A5C77AF
:103EA0006F726B5C6D6265645C6769746875622DC6
:103EB0006E65775C6C69627261726965735C6D6274
:103EC00065645C746172676574735C68616C5C5492
:103ED00041524745545F53544D5C544152474554F9
:103EE0005F4E55434C454F5F4631303352425C7014
:103EF000696E6D61702E630070696E20213D20280F
:103F000050696E4E616D65294E430000433A5C77FF
:103F10006F726B5C6D6265645C6769746875622D55
:103F20006E65775C6C69627261726965735C6D6203
:103F300065645C746172676574735C68616C5C5421
:103F400041524745545F53544D5C54415247455488
:103F50005F4E55434C454F5F4631303352425C67AC
:103F600070696F5F6170692E63000000DDDDDDDD6B
:103F7000DCBBBBDDDDDDDDDDDDDDDDDD98888888FA
:103F800088888888777777777788888885555556A1
:103F900066666666666666666668888883333332F8
:103FA00022222222222222222228888D00000000A2
:103FB0000000000027250008272500082725000805
:103FC00027250008272500082725000800000000F5
:103FD0000D210008000000000000000000000000AB
:103FE00000000000000000000000000000000000D1
:103FF0000522000800000000000000000000000092
:10400000A4FFFFFF0000000035220008292200085D
:104010000000000000000000312200082D220008EE
:104020000000000000000000000000002D24000837
:1040300000000000A0FFFFFF0000000000000000E3
:104040000000000000000000000000003522000811
:1040500029220008000000000000000031220008B2
:104060002D22000800000000A5220008000000002A
:104070002725000827250008FCFFFFFF000000009F
:104080000000000000000000000000000000000030
:1040900025230008000000000000000000000000D0
:1040A00027250008272500082725000827250008C0
:1040B00027250008272500080000000081230008AC
:1040C00000000000FCFFFFFF0000000000000000F7
:1040D00000000000FC400008EC0000206800000028
:1040E0002C2500086441000854010020440700000A
:1040F0003C2500081FC3FFFF69CBFFFF0000000045
:104100000000000002040608000000000102030491
:104110000102030406070809000000000090D00314
:104120000000000000000000010203040607080967
:10413000000000000000000000000000000000007F
:10414000000000000000000000000000000000006F
:10415000000000000000000000000000000000005F
:04416000000000005B
:04000005080000ED02
:00000001FF
