:020000040800F2
:1000000000040020E3010008F1010008F3010008EA
:10001000F5010008F7010008F901000800000000E0
:10002000000000000000000000000000FB010008CC
:10003000FD01000800000000FF01000801020008A7
:10004000811D0008831D0008851D0008871D00080C
:10005000891D00088B1D00088D1D0008A31D0008C8
:10006000A51D0008A71D0008A91D0008AB1D00085C
:10007000AD1D0008AF1D0008B11D0008B31D00082C
:10008000B51D0008B71D0008B91D000803020008CF
:10009000030200080302000803020008C31D000851
:1000A000C51D0008C71D0008C91D0008CB1D00089C
:1000B000CD1D0008CF1D0008D11D0008D31D00086C
:1000C000D51D0008D71D0008D91D0008DB1D00083C
:1000D000DD1D0008DF1D0008051E0008071E0008C2
:1000E000091E00080B1E00080D1E00080F1E000848
:1000F000111E0008131E0008151E0008171E000818
:10010000191E00081B1E00081D1E00081F1E0008E7
:10011000211E0008231E0008251E0008271E0008B7
:10012000291E00082B1E00082D1E00082F1E000887
:1001300000F002F800F045F80AA090E8000C8244B4
:100140008344AAF10107DA4501D100F03AF8AFF291
:10015000090EBAE80F0013F0010F18BFFB1A43F0A5
:1001600001031847BC880100DC880100103A24BF55
:1001700078C878C1FAD8520724BF30C830C144BF0C
:1001800004680C607047000000230024002500264E
:10019000103A28BF78C1FBD8520728BF30C148BFEA
:1001A0000B60704764290BF01D8078290BF0568096
:1001B00073290BF01082002070471FB51FBD10B5CA
:1001C00010BD0BF043FA1146FFF7F7FF01F08BFC6F
:1001D0000BF061FA03B4FFF7F2FF03BC01F06EFE0F
:1001E00070470B4880470B4981F308880A4800474D
:1001F000FEE7FEE7FEE7FEE7FEE7FEE7FEE7FEE7D7
:10020000FEE7FEE705480649044A064B7047000032
:10021000E1010008D871002031010008D8680020F1
:10022000D8710020D868002031490143314A11605B
:10023000704770B5002100230F22C4780CB32D4CF9
:10024000246804F4E064C4F5E064210AC1F1040305
:10025000CA40447804FA03F1847814402143090128
:10026000254C0678A155047804F01F050124AC4004
:1002700005786D114FF0E02606EB8505C5F80041C5
:1002800009E0047804F01F050124AC401B4D0678FA
:10029000761145F8264070BD194A0A400243154BB5
:1002A0001B1F1A60704739B1124A121D12680243AF
:1002B000104B1B1D1A6006E00E4A121D1268824385
:1002C0000C4B1B1D1A607047042808D14FF0E02129
:1002D000096941F004014FF0E022116107E04FF09D
:1002E000E021096921F004014FF0E022116170471B
:1002F0000000FA050CED00E000E400E080E100E021
:1003000080FFFF1F016821F00101016000210160F1
:1003100041608160C160864A811A90425BD012DCE4
:10032000844AA0EB020190423AD007DC824941188E
:100330001BD0142922D028297AD128E0142938D0BA
:10034000282975D13EE0B1F56C7F5BD006DCB1F5B4
:10035000627F49D0B1F5677F6AD14CE0B1F5717F1A
:1003600057D0B1F5767F63D15BE072494439496873
:1003700041F00F016F4A443A51605AE06D494439E7
:10038000496841F0F0016B4A443A516051E06949D3
:100390004439496841F47061664A443A516048E022
:1003A00064494439496841F47041624A443A5160B1
:1003B0003FE060494439496841F470215D4A443A5C
:1003C000516036E05B494439496841F47001594A4B
:1003D000443A51602DE057494439496841F0706111
:1003E000544A443A516024E05449096841F00F01ED
:1003F000524A11601DE05149096841F0F0014F4A2D
:10040000116016E04D49096841F470614B4A116072
:100410000FE04A49096841F47041484A116008E018
:1004200006E04649096841F47021444A116000E041
:1004300000BF00BF704710B50022026847F6F07396
:100440009A430C6A8B6823430C6923434C6923430A
:100450008C692343CC6923434C6A23438C6A23432E
:100460001A430260CB6843600B6883604B68C360CB
:1004700010BD0021016041608160C1600161416186
:100480008161C161016241628162704721B102688C
:1004900042F00102026003E0026822F00102026001
:1004A00070471AB103680B43036002E003688B4393
:1004B000036070470146486880B2704701460020DB
:1004C000002211F0805F03D01C4B1B1F1A6802E052
:1004D000184B443B1A680A4201D0012000E000207A
:1004E000704710F0805F02D01449086002E01149A3
:1004F00044394860704701460020002211F0805FB7
:1005000003D00E4B1B1F1A6802E00A4B443B1A68CB
:100510000A4201D0012000E00020704710F0805F07
:1005200002D00649086002E0024944394860704739
:100530008000024044000240F8FFFDBF0404024076
:10054000002046490860091D0860091D0860091D52
:100550000860434841491431086070478179002997
:100560003ED03E490968026891433C4A1160111D22
:10057000096802689143394A121D11600179121FFE
:100580008958026811430279344BD15033490831FC
:10059000096802689143314A08321160111D0968E7
:1005A000026891432D4A0C321160417910290ED115
:1005B000111F096802681143284A08321160111D91
:1005C000096802681143254A0C32116010E0417934
:1005D000224A8958026811434279204BD15007E0E2
:1005E00001791E4A89580268914302791B4BD15008
:1005F00070470021016001710C214171002181715E
:1006000070471649103109680143144A10321160CD
:10061000704701460020114A143212680A4201D084
:10062000012000E0002070470C4914310860704739
:10063000014600200022094B1B6803EA0102074B18
:1006400014331B680B4202D00AB1012000E00020E5
:1006500070470249143108607047000000040140EF
:10066000FFFF070030B943F2DB014FF0204242F8B0
:10067000201005E043F2D2014FF0204242F8201052
:100680006FF07042411C4FF0204343F82120114687
:100690001A4602EB8002C2F80411704710280AD1F2
:1006A00018214FF020421166402151664FF0FC3175
:1006B0009166D16610E01821FC4A11604FF04001AC
:1006C0004FF02042C2F884104FF0FC31F84A11601C
:1006D0004FF02042C2F88C1070471820F54908608E
:1006E0004FF000004FF02041C1F8A4004FF0FC3063
:1006F000F149086001F10401086001F1040108609A
:100700007047D0E901121143C268114302691143D5
:100710004269114382691143C2691143026A11435C
:10072000426A1143826A1143C26A11434FF0204367
:10073000026843F822108168082908D11A46016826
:1007400052F8211041F04001026843F82210016B79
:100750000968026B526841EA0211026B926841EA31
:100760000221026B928941EA0241026B128A41EA3C
:100770000251026B127D41EA0261026B92691143E0
:100780000268521C4FF0204343F82210816AB1F5F1
:10079000804F1AD1416B0968426B526841EA0211DD
:1007A000426B926841EA0221426B128A41EA02518D
:1007B000426B127D41EA0261426B92691143026809
:1007C00003EB8202C2F8041108E06FF070414FF0B1
:1007D0002043026803EB8202C2F80411704730B56F
:1007E000002100220023446844F0080485682C435B
:1007F000C5682C4305692C43456944EA452485694D
:1008000044EA4531C4692468C5696D6844EA052431
:10081000C5692D8944EA0544C5692D7B44EA056212
:10082000046A2468056A6D6844EA0524056A2D890E
:1008300044EA0544056A2D7B44EA05630468102CEC
:1008400005D14FF020442166A266E36607E0974C8D
:1008500021604FF02044C4F88820984C236030BDBC
:10086000016841F01001426841EA4221826841EA90
:100870004231904A1160C1680968C268526841EA11
:100880000221C268128941EA0241C268127B41EA30
:100890000261894A1160016909680269526841EA86
:1008A00002210269128941EA02410269127B41EA8E
:1008B0000261834A1160416909684269526841EAEC
:1008C00002214269128941EA02414269127B41EAEE
:1008D00002614FF02042C2F8B01070470021016061
:1008E0000221416000218160C1600161416181613B
:1008F000C1614FF48051016249004162002181626F
:10090000C1620F21026B1160026B5160FF21026B0B
:1009100091600F21026BD160026B1161026B51611A
:100920000021026B91610F21426B1160426B51609B
:10093000FF21426B91600F21426BD160426B1161CC
:10094000426B51610021426B91617047102101603F
:10095000002141608160C160016141618161FC21D0
:10096000C2691160C2695160C2699160C269D16097
:10097000026A1160026A5160026A9160026AD16083
:1009800070470021016041608160FC21C2681160F4
:10099000C2685160C2689160C268D160026911602A
:1009A00002695160026991600269D1604269116017
:1009B00042695160426991604269D160704751B1AA
:1009C0004FF0204252F8202042F001024FF0204325
:1009D00043F8202009E04FF0204252F82020394B04
:1009E0001A404FF0204343F82020704799B1102857
:1009F00008D14FF02042126E42F004024FF0204323
:100A00001A661DE0294A126842F004024FF02043A2
:100A1000C3F8802014E0102809D14FF02042126E54
:100A2000284BDB1E1A404FF020431A6608E01F4A8D
:100A30001268254B02EA03024FF02043C3F88020DE
:100A4000704740B11B49096841F004014FF0204252
:100A5000C2F8A01008E0174909681B4A01EA020120
:100A60004FF02042C2F8A010704799B1102808D169
:100A70004FF02042126E42F040024FF020431A66BF
:100A80002DE00A4A126842F040024FF02043C3F8BA
:100A9000802024E0102819D14FF02042126E0A4B1A
:100AA0003C3B1A404FF020431A6618E0800000A03B
:100AB000880000A0A00000A0A80000A08C0000A05A
:100AC000AC0000A0FEFF0F00FBFF0F00644A12689D
:100AD000644B02EA03024FF02043C3F880207047C2
:100AE00001460020102903D14FF02042506F01E051
:100AF0005D4A1068704710B5F2B1102807D14FF069
:100B000020435B6E0B434FF02044636632E0B0F548
:100B1000807F08D1554B1B6843EA01034FF0204406
:100B2000C4F8843026E0524B1B6843EA01034FF0BF
:100B30002044C4F8A4301DE0102807D14FF0204312
:100B40005B6E8B434FF02044636613E0B0F5807F0B
:100B500008D1464B1B6823EA01034FF02044C4F838
:100B6000843007E0424B1B6823EA01034FF0204426
:100B7000C4F8A43010BD10B5024600200023102A8E
:100B800003D14FF02044636E07E0B2F5807F02D1BD
:100B9000364C236801E0364C23680B4201D001201B
:100BA00000E0002010BD102807D14FF02042526E07
:100BB0008A434FF020435A6613E0B0F5807F08D196
:100BC0002A4A126822EA01024FF02043C3F8842027
:100BD00007E0274A126822EA01024FF02043C3F8D7
:100BE000A420704770B50246002000230024002591
:100BF000102A03D14FF02046736E07E0B2F5807FD4
:100C000002D11A4E336801E0194E336803EA010439
:100C100003EAD10514B10DB1012000E0002070BD40
:100C2000102808D14FF02042526E22EAD1024FF034
:100C300020435A6613E0B0F5807F08D10B4A126852
:100C400022EAD1024FF02043C3F8842007E0084A8B
:100C5000126822EAD1024FF02043C3F8A420704763
:100C6000800000A0BFFF0F00940000A0840000A03F
:100C7000A40000A010B50446C549601A8C422FD0CC
:100C800009DCC448201810D0B0F5806F16D0B0F53C
:100C9000006F4AD11BE0B0F5806F2AD0B0F5006F2D
:100CA00030D0B0F5406F40D135E00121042000F094
:100CB00059FB0021042000F055FB37E001210820FA
:100CC00000F050FB0021082000F04CFB2EE0012139
:100CD000102000F047FB0021102000F043FB25E02E
:100CE0000121202000F03EFB0021202000F03AFBF3
:100CF0001CE00121402000F035FB0021402000F0E5
:100D000031FB13E00121802000F02CFB002180202A
:100D100000F028FB0AE00121080200F023FB00217B
:100D20004FF4807000F01EFB00E000BF00BF10BD5C
:100D300010B50121084600F015FB0021012000F04C
:100D400011FB10BD2DE9F0410246002500260020D0
:100D500000230024002791F803C00CF00F0591F840
:100D600003C01CF0100F03D091F802C04CEA050537
:100D700091F800C0BCF1000F31D0146800202BE0C6
:100D80004FF0010C0CFA00F3B1F800C00CEA0306B6
:100D90009E4220D183004FF00F0C0CFA03F7BC43A6
:100DA00005FA03FC4CEA040491F803C0BCF1280FD7
:100DB00006D14FF0010C0CFA00FCC2F814C00AE096
:100DC00091F803C0BCF1480F05D14FF0010C0CFAAB
:100DD00000FCC2F810C0401C0828D1D31460B1F840
:100DE00000C0BCF1FF0F34DD546800202EE000F19C
:100DF000080C4FF0010808FA0CF3B1F800C00CEA37
:100E000003069E4221D183004FF00F0C0CFA03F72A
:100E1000BC4305FA03FC4CEA040491F803C0BCF19E
:100E2000280F05D100F1080C08FA0CF8C2F814805C
:100E300091F803C0BCF1480F07D100F1080C4FF046
:100E4000010808FA0CF8C2F81080401C0828CED31C
:100E50005460BDE8F0814FF6FF710180022181707E
:100E60000421C17070470246002093680B4201D0F4
:100E7000012000E0002070470146886880B270477A
:100E800002460020D3680B4201D0012000E0002080
:100E900070470146C86880B2704701617047416180
:100EA00070470AB1016100E041617047C16070475D
:100EB0004FF480320A438261816182618269826972
:100EC000704702460020344B18684FF68073184074
:100ED00040EA02100843304B186070472F49C86140
:100EE0007047F0B50A4600230024002100252A4E51
:100EF0007168C0F3034583B200F44016B6F5401F95
:100F000008D121F07061244E766826F07066224F79
:100F10007E6012E000F48016B6F5801F06D103262D
:100F200006FA05F4A14341F0706106E0460D360172
:100F300003FA06F6B14341F0706122B1460D360165
:100F400003FA06F63143144E7160F0BD30B500224D
:100F50008B071C0F0F2303FA04F20F4B08338C107E
:100F600053F8243093430C4C08348D1044F825304A
:100F700023468C1053F824308C07240F00FA04F415
:100F80002343054C08348D1044F8253030BD000053
:100F90000014014000F8FEBF0000014000002042A4
:100FA00010B50121080700F0EAF900214FF0805048
:100FB00000F0E5F910BD2649086270472449086130
:100FC000704701460020234A106820F0E0000843E3
:100FD0001060704720490860704710B50246002035
:100FE0001C4B186820F00300104318601B4B1B6853
:100FF00043F00403194C2360012901D130BF00E004
:1010000020BF10BD1348006840F00400114908607B
:101010000846006840F0020008601048006840F090
:1010200004000E49086000BF00BF30BF7047014692
:101030000020084A52680A4201D0012000E0002046
:1010400070470449096841EA8001024A116070470B
:1010500000000E4200700040A0000E4210ED00E0C3
:10106000DC48006840F00100DA4908600846406842
:10107000D9490840D749486008460068D749084020
:10108000D44908600846006820F4802008600846BB
:10109000406820F4FE004860002088607047CD4919
:1010A000096821F48031CB4A11601146096821F4A6
:1010B00080211160B0F5803F03D0B0F5802F0ED1B4
:1010C00006E0C449096841F48031C24A116007E072
:1010D000C049096841F4A021BE4A116000E000BF88
:1010E00000BF704710B501460022002300204A11BE
:1010F000012A02D1B74C236806E0022A02D1B54C7E
:10110000236A01E0B34C636A01F01F02012494409A
:101110001C4201D0012000E0002010BD38B50020A5
:1011200000900024002500BF3120FFF7DBFF0546BB
:101130000098401C00901DB90098B0F5A06FF3D145
:101140003120FFF7CFFF08B1012400E00024204642
:1011500038BD014600209F4A106820F0F80040EAA0
:10116000C100106070479E49086070470246002029
:10117000984B586820F47C1042EA01031843954BC1
:101180005860704796490866704701460020914AAA
:10119000506820F003000843506070478D48406855
:1011A00000F00C007047014600208A4A506820F089
:1011B000F00008435060704701460020854A50689F
:1011C00020F4E06008435060704701460020814AE7
:1011D000506820F4605040EAC1005060704729B167
:1011E0007C4A527A02437B4B5A7204E0794A527A23
:1011F0008243784B5A7270477A49086070470146BB
:101200000020744A506820F4404008435060704702
:101210000021754A11706F4A82F82010012802D00F
:10122000042808D103E001216F4A117004E0052170
:101230006D4A117000E000BF00BF70476B49086045
:1012400070476449096A0143624A116270476749FD
:1012500044390860704730B5002100220024002383
:101260005C4D6D6805F00C0121B1042905D00829F9
:1012700023D105E05E4D056022E05D4D05601FE075
:10128000544D6D6805F47012022505EB9242514DE4
:101290006D6805F480341CB9564D554305600BE06C
:1012A0004C4D6D6815F4003F03D0524D5543056019
:1012B00002E04F4D5543056002E04D4D056000BF13
:1012C00000BF444D6D6805F0F00109094A4D6B5CA3
:1012D0000568DD4045603F4D6D6805F4E061090A31
:1012E000454D6B5C4568DD4085603A4D6D6805F4A1
:1012F0006051C90A404D6B5C4568DD40C560354DA5
:101300006D6805F44041890B3C4D6B5CC568B5FBCD
:10131000F3F5056130BD29B12E4A526902432D4BC8
:101320005A6104E02B4A526982432A4B5A61704742
:1013300029B1284A92690243264B9A6104E0254A62
:1013400092698243234B9A61704729B1214AD2693D
:101350000243204BDA6104E01E4AD26982431D4BEE
:10136000DA61704729B11B4AD2680243194BDA602F
:1013700004E0184AD2688243164BDA60704729B1FC
:10138000144A12690243134B1A6104E0114A1269AC
:101390008243104B1A617047144940390860704706
:1013A0000F49C86470470B49C87170470948406AC3
:1013B00040F0807007494862704701460020054AA6
:1013C00092680A4201D0012000E0002070470149E4
:1013D00088727047001002400000FFF8FFFFF6FE21
:1013E00000004242D80042422010024080044242A3
:1013F00000127A0000093D000000002010000020CB
:1014000000206949086048608860C8604862886256
:10141000C862664888630020C86370470021624A3A
:10142000516847F6FF6291430278C3681A438368A4
:101430001A4303691A4343681A4343691A43114321
:10144000594A516070470021017041608160C1605C
:101450000161416170475649086070475249096807
:1014600021F00301504A11601146096801431160DF
:1014700070474D48006800F00300704729B14A4AA0
:10148000D26B0243484BDA6304E0474AD26B824393
:10149000454BDA6370474749086070470021424B6B
:1014A00002689A601A46D1686FF30A01D0E90123F5
:1014B0001A43C3681A4303691A4311433A4AD16075
:1014C00070470021016041608160C1600161704727
:1014D00035480069C0B27047014633480844406946
:1014E00070470021304B02685A6242689A621A467D
:1014F000D16A21F0F701D0E902231A4303691A43A4
:1015000043691A431143284AD16270474FF0FF31B3
:101510000160002141608160C160016141617047EB
:101520002148006B704724480068704722490860D2
:1015300070471D48806C70471E4914310860704721
:101540001C491831086070471A491C3108607047FF
:1015500018492031086070471849086070471849D9
:101560000860704701218143164A1160704716498F
:1015700008607047014600200B4A526B0A4201D0B6
:10158000012000E00020704707498863704701464A
:101590000020054A526B0A4201D0012000E00020E1
:1015A000704701498863704700800140FF07C00011
:1015B000A00030428C05304280800140AC013042B6
:1015C000B0013042B4013042B801304210B5044697
:1015D000D749601A8C422BD006DCD648201813D08D
:1015E000B0F5806F38D119E0B0F5806F2AD0B0F532
:1015F0006C4F31D101218803FFF7B4FE00214FF475
:101600008040FFF7AFFE28E001214804FFF7B7FE56
:1016100000214FF40030FFF7B2FE1EE001218804E4
:10162000FFF7ADFE00214FF48020FFF7A8FE14E085
:101630000121C804FFF7A3FE00214FF40020FFF7AB
:101640009EFE0AE001210805FFF799FE00214FF4F4
:101650008010FFF794FE00E000BF00BF10BD2DE931
:10166000F04786B005460E460024A24600BF00BFE4
:1016700000272F462C8A4CF6FF700440F088044364
:101680002C82AC894EF6F3100440B08831890843AF
:10169000718908430443AC81AC8A4FF6FF40044093
:1016A000B0890443AC8201A8FFF7D5FDA248874268
:1016B00002D1DDF810A001E0DDF80CA00AEBCA00B1
:1016C00000EB0A1031688900B0FBF1F86420B8FB28
:1016D000F0F004012009642101FB1089322000EBA5
:1016E0000910B0FBF1F000F00F0004432C8106B0AC
:1016F000BDE8F0874FF41651016000218180C18060
:1017000001810C21418100218181704710B5024681
:101710000020108A4FF2FF0318400B884C882343A7
:101720008C882343CC8823431843108210BD0021AA
:10173000018041808180C180704721B1828942F45B
:101740000052828104E082894DF6FF731A40828143
:101750007047F0B5034600240026002500201846F7
:10176000C1F3421401F01F06012707FA06F5012C08
:1017700001D10C3004E0022C01D1103000E0143013
:101780001AB107682F43076002E00768AF4307609C
:10179000F0BD1AB1838A0B43838202E0838A8B43B4
:1017A00083827047028A4FF6F0731A400282028ADF
:1017B0000A430282704782894FF2FF731A40828186
:1017C00082890A438281704721B1828942F00202F4
:1017D000828104E082894FF6FD731A40828170474E
:1017E000028A4FF6DF731A400282028A0A4302829B
:1017F000704721B1028A42F48042028204E0028AE8
:101800004BF6FF731A4002827047C1F308028280D0
:10181000704701468888C0F308007047818941F00D
:10182000010181817047028BD2B20283028B42EAAE
:10183000012202837047028B02F47F420283028BF3
:101840000A430283704721B1828A42F020028282D9
:1018500004E0828A4FF6DF731A408282704721B11A
:10186000828A42F01002828204E0828A4FF6EF738D
:101870001A408282704721B1828A42F00802828235
:1018800004E0828A4FF6F7731A4082827047828A98
:101890004FF6FB731A408282828A0A438282704723
:1018A00021B1828A42F00202828204E0828A4FF6EB
:1018B000FD731A40828270470246002013880B4253
:1018C00001D0012000E000207047CA430280704729
:1018D00070B502460B460024002100250020C3F30A
:1018E000421503F01F01012606FA01F1012D02D174
:1018F0009689314006E0022D02D1168A314001E07E
:10190000968A31401C12012606FA04F416883440E7
:1019100011B10CB1012000E0002070BD10B5002213
:1019200000230A1201249440A3B2DC43048010BDBA
:10193000004C004000BCFFBF003801400CB5002047
:10194000019000904748006840F4803045490860A5
:1019500000BF4448006800F4003000900198401C2B
:101960000190009818B90198B0F5A06FF1D13D48E9
:10197000006810F4003F02D00120009001E0002038
:1019800000900098012843D13748006840F01000CB
:10199000354908600846006820F0030008600846E2
:1019A000006840F0020008602E4840682D494860F9
:1019B0000846406848600846406840F480604860D7
:1019C0000846406820F47C1048600846406840F4AF
:1019D000E81048600846006840F08070086000BF6A
:1019E0002048006810F0007FFAD01E48406820F0C0
:1019F00003001C4948600846406840F00200486007
:101A000000BF1848406800F00C000828F9D101E038
:101A100000BFFEE70CBD10B5FFF790FF10BD10B57D
:101A20001048006840F001000E4908600846406810
:101A30000E4908400B494860084600680C490840B8
:101A4000084908600846006820F4802008600846BD
:101A5000406820F4FE00486000208860FFF7DBFF4C
:101A600010BD000000100240002002400000FFF8FE
:101A7000FFFFF6FE0146AC4A002002E0135C0B5467
:101A8000401C0C28FADB704708B54FF4C060FEF725
:101A9000CBFB06208DF8000001208DF801008DF8A9
:101AA00002008DF803006846FEF7C3FB25208DF881
:101AB000000001208DF8010002208DF802000120B5
:101AC0008DF803006846FEF7B4FB08BD30B502464A
:101AD0000B4614460021002002E0655C6840491C6A
:101AE0009942FADB30BD08B54FF00009FFF797FFC8
:101AF000FFF7CAFF8D4804F00BF88D48806940F06D
:101B000001008B4988618B48406820F0E06089497A
:101B100048600846406840F00070486000F08AF96C
:101B200003F056F906F076F9FF208349486000205B
:101B30000860002404E08148205C81490855641C49
:101B4000402CF8DB002407E07D4901EBC4000122B2
:101B50007C4906F0D8F8641C082CF5DB0122794991
:101B60007748203006F0CFF80122764974482830B3
:101B700006F0C9F8002405E004F120007049085C73
:101B80000855641C102CF7DB01226E496C4806F0E6
:101B9000BAF801226B496A48083006F0B4F86A487E
:101BA000FFF768FF0C226649674809F085FB18B10A
:101BB00001206649086002E00020644908600122B3
:101BC00063A1644808F088FA06461EB3002002F0BC
:101BD00020FD642003F0CEFF012002F01AFD6420F6
:101BE00003F0C8FF002002F014FD642003F0C2FFE0
:101BF000012002F00EFD642003F0BCFF002002F083
:101C000008FD642003F0B6FF012002F002FD64200D
:101C100003F0B0FF002002F0FCFC06F08CFB00207B
:101C200002F040FD7FE0B9F1000F06D0B9F1010FDD
:101C300011D0B9F1020F75D132E0684603F063F9B3
:101C4000401C07D09DF80000A52803D14249087028
:101C50004FF0010966E003F072F902281FDB00254E
:101C6000684603F050F99DF800502D029DF80000E1
:101C700039494870684603F046F99DF8000005436D
:101C80009DF8000034498870B5F57A7F05DCED1EBB
:101C90004FF000084FF0020901E04FF0000941E069
:101CA00003F04DF9A8422FDB002405E02A4AE11C8D
:101CB000501803F028F9641CAC42F7DBA91C264835
:101CC000FFF704FF07462449A81C095CB94214D158
:101CD0002149681C085C3C280AD10846405DC3289D
:101CE00006D16D1F29461C48C01C03F0EAFD08E020
:101CF00015211AA009F00CFA03E0142117A009F02D
:101D000007FA4FF000090CE0012003F033FF08F15F
:101D1000010841F28830804503DB4FF000084FF0A6
:101D2000000900BF00BF7EE7E8F7FF1F00A24A04DA
:101D300000100240000001406C00002000F807087D
:101D4000A00000207AD20008940000201400002097
:101D5000303A0000E0000020803300204572726FAE
:101D6000723A2564000000007047704700BFFEE72C
:101D700000BFFEE700BFFEE770477047704770473F
:101D800070477047704770477047704710B5012023
:101D9000FEF74EFC20B10120FEF75BFCFFF73FFE93
:101DA00010BD704770477047704770477047704765
:101DB000704770477047704770477047704770476B
:101DC000704770477047704770477047704770475B
:101DD000704770477047704770477047704710B53D
:101DE0001348008810F0200F0BD01149091D0988F5
:101DF000C8B203F065F80E48008820F020000C49B6
:101E0000088010BD70477047704770477047704733
:101E1000704770477047704770477047704770470A
:101E200070477047704770477047704770477047FA
:101E30000038014000B585B02A48006800900020B5
:101E4000ADF80400ADF80600ADF80800ADF80C00E0
:101E50000C20ADF80A0001210520FFF769FA0121E5
:101E60008803FFF765FA4FF40070ADF810001820F2
:101E70008DF8130003208DF8120004A91A48FEF70C
:101E800061FF4FF48060ADF8100004208DF813005E
:101E900004A91548FEF756FF69461448FFF7DFFB13
:101EA000012240F225511148FFF753FC01210F4850
:101EB000FFF743FC02F0FAFF05B000BD014600BF8A
:101EC000704770B504460D46E1B20848FFF79DFC27
:101ED00000BF80210548FFF7EFFC0028F9D020461D
:101EE00070BD0000180000200008014000380140CB
:101EF00070B52A25FE48446B01E0FD48446B14F0A0
:101F0000450FFAD014F0040F05D003250420FFF785
:101F10003BFB284670BD14F0010F05D001250120C0
:101F2000FFF732FB2846F5E740F2FF50FFF72CFBA6
:101F30002846EFE72DE9F04106460F464FF02A0804
:101F4000EB48456B01E0EA48456B15F0450FFAD0C8
:101F500015F0040F07D04FF003080420FFF714FB1F
:101F60004046BDE8F08115F0010F06D04FF00108A2
:101F70000120FFF709FB4046F3E7FFF7A9FAB0425B
:101F800003D04FF010084046EBE740F2FF50FFF758
:101F9000FBFA0020FFF7A0FA044614F4604F03D1C7
:101FA000200C38804046DCE714F4005F01D0132099
:101FB000D7E714F4804F01D01020D2E714F4004F7B
:101FC00001D00F20CDE74046CBE738B52A240120C9
:101FD0000090FFF74EFA10B92524204638BDC548B9
:101FE0000068042829D00020C34908600220486006
:101FF000C02088600020C8604FF4806008610846F7
:10200000FFF74CFAFFF774FF04462A2C01D0204654
:10201000E4E70020FFF760FAB84908600420FFF702
:102020005BFAB64948600820FFF756FAB349886062
:102030000C20FFF751FAB149C860AE48006858B1AA
:10204000AC480068012807D0AA480068062803D0D9
:10205000A8480068022817D10020A749086003207B
:102060004860402088600020C8604FF480600861AC
:102070000846FFF713FA69460320FFF75BFF0446A3
:102080002A2C01D02046A9E79A48006804282FD0BE
:10209000BDF800009A490860BDF8000000049649A8
:1020A000086009204860C02088600020C8604FF4A4
:1020B000806008610846FFF7F1F9FFF719FF044651
:1020C0002A2C01D0204689E70020FFF705FA8D4928
:1020D00008600420FFF700FA8A4948600820FFF7EB
:1020E000FBF9884988600C20FFF7F6F98549C8603C
:1020F0002A24204672E770B52A257D48446B01E00A
:102100007B48446B14F0450FFAD014F0040F05D04F
:1021100003250420FFF738FA284670BD40F2FF502F
:10212000FFF732FA2846F8E72DE9F04106462A275C
:102130006F48456B01E06E48456B15F0450FFAD0CE
:1021400015F0040F06D003270420FFF71DFA3846C8
:10215000BDE8F08115F0010F05D001270120FFF740
:1021600013FA3846F4E7FFF7B3F9B04202D010276C
:102170003846EDE740F2FF50FFF706FA0020FFF780
:10218000ABF904466048044201D13846E0E714F058
:10219000004F01D01C20DBE714F0804F01D0092054
:1021A000D6E714F0005F01D00A20D1E714F0805F79
:1021B00001D00B20CCE714F0006F01D00C20C7E752
:1021C00014F0806F01D00D20C2E714F0807F01D0A1
:1021D0000E20BDE714F4000F01D00F20B8E714F46F
:1021E000800F01D01020B3E714F4001F01D011209C
:1021F000AEE714F4801F01D01220A9E714F4002FD9
:1022000001D01320A4E714F4802F01D014209FE7FD
:1022100014F4003F01D015209AE714F4803F01D058
:10222000162095E714F4004F01D0172090E714F41E
:10223000804F01D018208BE714F4005F01D01920E3
:1022400086E714F0080F01D01A2081E738467FE7AF
:1022500070B52A2642F210752548446B02E06D1EC7
:102260002348446B14F0450F01D1002DF7D115B16F
:1022700014F0040F05D003260420FFF785F930463B
:1022800070BD14F0400F05D02A264020FFF77CF9DE
:102290003046F5E73046F3E770B52A2542F2107470
:1022A00000E0641E24B18020FFF764F90028F8D014
:1022B00014B90325284670BD40F2FF50FFF764F9BA
:1022C0002846F8E72DE9F0412A24002600250027BA
:1022D0004FF00008B2200D49087000204860886067
:1022E000C860086148610846FFF798F803200FE0CE
:1022F000008001402000002048030020200300202F
:10230000240000201003002008E0FFFD300300201F
:10231000FFF7A4F80120FFF79EF80020FE490860AF
:1023200048608860C8604FF4806008610846FFF725
:10233000B5F8FFF7B1FF04462A2C02D02046BDE8CD
:10234000F0814FF4D570F4490860082048604020BF
:1023500088600020C8604FF4806008610846FFF77D
:102360009DF8FFF775FF04462A2C05D10120EB49A3
:1023700008604FF0804812E00020E74908603720ED
:102380004860402088600020C8604FF48060086189
:102390000846FFF783F83720FFF7C6FE0446002003
:1023A000DD49086037204860402088600020C86010
:1023B0004FF4806008610846FFF770F83720FFF798
:1023C000B3FE04462A2C4CD138E00020D2490860E4
:1023D00037204860402088600020C8604FF480604B
:1023E00008610846FFF75AF83720FFF79DFE0446BC
:1023F0002A2C01D02046A2E7C94848EA0000C64975
:10240000086029204860402088600020C8604FF4A0
:10241000806008610846FFF741F8FFF76CFE04464C
:102420002A2C01D020468AE70020FFF755F80646FF
:10243000012080EAD67080F001076D1C1FB94FF6AD
:10244000FF708542C1D34FF6FF70854202D31B2433
:10245000204674E706F08040060002D00220AF4913
:10246000086020466BE708B501213020FEF760FFC9
:102470004FF48850ADF8000003208DF802001820BA
:102480008DF803006946A748FEF75CFC0420ADF810
:1024900000006946A448FEF755FC012144F26C0097
:1024A000FEF746FF2020ADF8000010208DF8030055
:1024B00003208DF8020069469C48FEF743FC482043
:1024C000ADF8000069469848FEF73CFC4FF46060A8
:1024D000ADF8000069469348FEF734FC4FF40070F5
:1024E000ADF8000018208DF8030069469048FEF70B
:1024F00029FC4FF48060ADF8000004208DF8030043
:1025000069468B48FEF71EFC4FF460618548FEF774
:10251000C4FC08BD10B52A24FFF7A5FF01218802DD
:10252000FEF7F9FE01210220FEF7F5FEFEF768FF37
:10253000FFF7C8FE04462A2C01D0204610BDFFF745
:1025400044FD04462A2C01D02046F7E701207949B2
:102550000870002048608860C860086148610846CB
:10256000FEF75CFF2046E9E710B52A240020FEF7BD
:1025700075FF204610BD30B501462A200022674B6A
:102580001B7881F84E306C4B1B88A1F84C306B4B9C
:102590001B681A0E93090B70C2F383034B7002F091
:1025A00003038B70654B1B68C3F30742CA70634B10
:1025B0001B88C3F307220A71604B1A784A715B6863
:1025C0001A0E1301CB805D4B5B68C3F30742CB88C7
:1025D00043EA1213CB8002F00F030B72574B9B8818
:1025E000C3F30722D3094B72C2F380138B72C2F379
:1025F0004013CB72C2F300130B7300234B73474B92
:102600001B681BB1454B1B68012B3CD193071B0D6D
:102610000B614A4B1A790B6943EA82030B61474B02
:102620009B681A0E0B6943EA92130B61C2F3C20353
:102630000B7502F007034B75404B9B68C3F30742D1
:1026400053098B75C2F38203CB7593075B0F0B762F
:102650003A4B1B89C3F307220B7E43EAD2130B7656
:102660000B695B1C4B640C7E4B6CA41C0125A540C4
:102670006B434B640C7A0123A3408B64D1E9113482
:1026800063434B6421E0254B1B68022B1DD12B4B70
:102690001A7993069B0A0B61284B9B681A0E0B69EB
:1026A00043EA02230B61254B9B68C3F307420B6986
:1026B00013430B61214B1B89C3F307220B695B1C7E
:1026C000DB044B644FF400738B64C2F3801301F896
:1026D000193F93065B0E4B70184B1A7A4B7843EAFE
:1026E000D2134B7002F07F038B70144BDB681A0E11
:1026F000D309CB70C2F341130B71C2F382034B7148
:1027000093071B0F8B710D4BDB68C3F307428B796B
:1027100043EA92138B7113E048030020200000204D
:10272000000010800010014000140140000C014026
:102730000008014030030020240000201003002086
:10274000C2F34013CB7100230B7202F001034B72F2
:10275000F94B9B89C3F30722D3098B72C2F3801311
:10276000CB72C2F340130B73C2F300134B73C2F36B
:1027700081038B7302F00303CB73EF4B1A7B530877
:102780000B7401234B74ED4B1B681A0ECA74A1F134
:102790001901EA4B1B68C3F307424FEA0224CC85B8
:1027A000E64B1B88C3F30722CB8D43EA0203CB859C
:1027B000E24B1A784FEA02640C635B684FEA1362DB
:1027C0000B6B43EA02440C63DC4B5B68C3F30742C8
:1027D0000B6B43EA02240C63D84B9B88C3F307229C
:1027E0000B6B43EA02030B63D44B1A794FF03403AB
:1027F0005A54D24B9B684FEA13624FF035035A5438
:10280000CE4B9B68C3F307424FEA02648C63CB4B09
:102810001B89C3F307228B6B43EA02448C63C74BCB
:102820001A7A8B6B43EA02248C63C44BDB684FEA51
:1028300013628B6B43EA02038B63C04BDB68C3F309
:1028400007424FF03C035B5C43EA12144FF03C0339
:102850005C544FEA02734FEA1354CC87B74B9B8901
:10286000C3F30722CB8F43EA0203CB87B34B1A7B18
:102870004FEA52044FF040035C544FF001044FF014
:1028800041035C5430BD2DE9FC4107460D4600264E
:102890002A240020009001900820A94908601020F7
:1028A0004860402088600020C8604FF48060086164
:1028B0000846FEF7F3FD1020FFF736FC04462A2CED
:1028C00002D02046BDE8FC819E48008800049C4957
:1028D000086037204860402088600020C8604FF4BE
:1028E000806008610846FEF7D9FD3720FFF71CFC21
:1028F00004462A2C01D02046E4E793489349086017
:1029000008204860302088600220C86000200861EC
:10291000012048610846FEF7E4FD00208849086070
:1029200033204860402088600020C8604FF48060F9
:1029300008610846FEF7B2FD3320FFF7F5FB0446B9
:102940002A2C01D02046BDE709E04FF40010FEF725
:1029500011FE20B1FEF7E7FD4DF82600761C7C48FD
:10296000406B40F22A610842EFD00820FEF702FED9
:1029700028B10820FEF708FE04242046A2E7022022
:10298000FEF7F8FD28B10220FEF7FEFD02242046E6
:1029900098E72020FEF7EEFD28B12020FEF7F4FD99
:1029A000062420468EE74FF40070FEF7E3FD30B1B9
:1029B0004FF40070FEF7E8FD0724204682E740F25E
:1029C000FF50FEF7E1FD00980006009901F47F41F9
:1029D00040EA0120009901F47F0140EA11200099AA
:1029E00040EA1160686001980006019901F47F4196
:1029F00040EA0120019901F47F0140EA1120019988
:102A000040EA1160286020465CE77CB505462A2430
:102A1000002000900190FEF75FFD10F0007F02D0D3
:102A20000E2420467CBD4749098888B26946FFF7D5
:102A30002AFF04462A2C01D02046F3E7012D37D186
:102A4000019810F4802F30D03E48008800043C49A3
:102A5000086037204860402088600020C860A802D5
:102A600008610846FEF71AFD3720FFF75DFB0446B4
:102A70002A2C01D02046D5E70220314908600620E3
:102A80004860402088600020C8604FF48060086182
:102A90000846FEF703FD0620FFF746FB04462A2CF6
:102AA00001D02046BEE72046BCE725242046B9E7F2
:102AB000019810F4803F31D022480088000420495A
:102AC000086037204860402088600020C8604FF4CC
:102AD000806008610846FEF7E1FC3720FFF724FB21
:102AE00004462A2C01D020469CE7002014490860A7
:102AF00006204860402088600020C8604FF4806055
:102B000008610846FEF7CAFC0620FFF70DFB0446E5
:102B10002A2C01D0204685E7204683E7252420463D
:102B200080E770B504462A250A480068032813D1B7
:102B30002725284670BD0000100300202003002038
:102B40004803002024000020FFFF0F005C0300204A
:102B50000080014020000020FE48006838B1FD4898
:102B60000068012803D0FB480068022830D1B4F582
:102B7000805F02D127252846DCE7B4F5006F15D128
:102B80000120FFF742FF05462A2D21D10120F249FD
:102B90000870002048608860C8604FF400600861D9
:102BA000002048610846FEF739FC11E00020FFF7DD
:102BB0002CFF05462A2D0BD10120E7490870002083
:102BC00048608860C860086148610846FEF726FCD6
:102BD0002846AFE701462A2019B1012901D0022970
:102BE00002D1DE4A116000E02620704770B504462D
:102BF0002A25DB4804600720D949486040208860C6
:102C00000020C8604FF4806008610846FEF746FC6B
:102C10000720FFF789FA0546284670BD30B58BB00E
:102C200005460C46CF48FDF75CFC0021CE48FDF779
:102C30002DFCCE480090019500200290A008039042
:102C4000002004908020059080000690800007906E
:102C5000002008904FF40050099000200A90694627
:102C6000C148FDF7E8FB0121BF48FDF70FFC0BB0A1
:102C700030BD0146002002E04910421CD0B20129BB
:102C8000FAD170472DE9F04707460D4614464FF03C
:102C90002A084FF000092E464FF0000A25B94FF0E0
:102CA00026084046BDE8F0872A20B1490870002078
:102CB000B0490860B0490860B048B14908600020D8
:102CC00048608860C860086148610846FEF709FCF2
:102CD0000020FEF7E0FB0020FEF7FEFB10F0007F77
:102CE00003D04FF00E084046DCE79A4800680228FF
:102CF00001D104027F0A002C21DDB4F5006F1EDC37
:102D0000601E20421BD12046FFF7B3FF8246944845
:102D10000460102092494860402088600020C8600C
:102D20004FF4806008610846FEF7B8FB1020FFF7FB
:102D3000FBF98046B8F12A0F05D04046B2E74FF0C4
:102D400026084046AEE78D488D4908600846446035
:102D50004FEA0A1088600220C86000200861012044
:102D600048610846FEF7BDFB8348046000208549A2
:102D70000860854805607A480760112078494860F6
:102D8000402088600020C8604FF4806008610846D9
:102D9000FEF784FB1120FFF7C7F98046B8F12A0F30
:102DA00001D040467EE76D480068022857D111E007
:102DB0004FF40040FEF7DEFB60B14FF0000905E084
:102DC000FEF7B1FB46F8290009F10109B9F1080F36
:102DD000F6D3203665488038406B40F22A610842BD
:102DE000E6D00820FEF7C6FB30B10820FEF7CCFB8A
:102DF0004FF00408404655E70220FEF7BBFB30B118
:102E00000220FEF7C1FB4FF0020840464AE72020AF
:102E1000FEF7B0FB30B12020FEF7B6FB4FF00608FE
:102E200040463FE74FF40070FEF7A4FB38B14FF483
:102E30000070FEF7A9FB4FF00708404632E703E0B9
:102E4000FEF771FB3060361D4FF40010FEF792FB69
:102E50000028F5D140F2FF50FEF796FB2CE03F48EA
:102E60000068012813D1012148F22A30FEF706FB41
:102E700000BF4048006818B93D4800782A28F8D0BB
:102E80003B4800782A2817D0394800780AE73348A9
:102E9000006888B9012140F22A30FEF7EFFA0120DC
:102EA000FEF7F9FA21462846FFF7B8FE00BF37487B
:102EB000FDF704FB0028FAD04046F3E62DE9F05F69
:102EC00081460E4614461D464FF02A084FF0000A70
:102ED00037464FF0000B26B94FF026084046BDE8B4
:102EE000F09F2A20224908700020224908602249C8
:102EF0000860224822490860002048608860C86055
:102F0000086148610846FEF7ECFA0020FEF7C3FAB4
:102F10000020FEF7E1FA10F0007F03D04FF00E081A
:102F20004046DCE70B480068022802D104024FEA61
:102F30005929002C40DDB4F5006F3DDC601E2042B5
:102F40003AD12046FFF795FE8346054804601020DD
:102F500003491DE02000002030030020280000204D
:102F60004803002000F0001044040240808001402B
:102F700034000020380000202C000020FFFF0F004C
:102F80005C030020300000204400002000200010DE
:102F90004860402088600020C8604FF4806008616D
:102FA0000846FEF77BFA1020FFF7BEF88046B8F11E
:102FB0002A0F05D0404692E74FF0260840468EE79C
:102FC000012D6FD905FB04F0B0F1007F03D34FF062
:102FD0002608404683E705FB04F0FE49086001200F
:102FE000FD490860FD480660FD48FE49086005FB94
:102FF00004F048604FEA0B1088600220C86000208F
:103000000861012048610846FEF76BFAF648C0F8EF
:1030100000901220F4494860402088600020C86079
:103020004FF4806008610846FEF738FA1220FFF777
:103030007BF88046B8F12A0F01D040464FE7EB48B5
:10304000006802287AD111E04FF40040FEF792FAAE
:1030500060B14FF0000A05E0FEF765FA47F82A0074
:103060000AF1010ABAF1080FF6D32037E048406BA5
:1030700040F22A310842E7D00820FEF77BFA30B14F
:103080000820FEF781FA4FF00408404627E70220A7
:10309000FEF770FA38B10220FEF776FA4FF0020818
:1030A00040461CE78DE02020FEF764FA30B1202076
:1030B000FEF76AFA4FF00608404610E74FF400703A
:1030C000FEF758FA38B14FF40070FEF75DFA4FF092
:1030D0000708404603E703E0FEF725FA38603F1D86
:1030E0004FF40010FEF746FA0028F5D14FF4807037
:1030F000FEF740FA18B3BF48006838B1BD48006811
:10310000022803D0BB480068012818D10020B64926
:1031100008600C204860402088600020C8604FF4A0
:10312000806008610846FEF7B9F90C20FEF7FCFF45
:103130008046B8F12A0F02D04046D0E604E040F2C3
:10314000FF50FEF721FA3CE0A8480068012813D19F
:10315000012148F22A30FEF791F900BFA648006825
:1031600018B9A64800782A28F8D0A44800782A2858
:1031700027D0A2480078B2E69C48006808BB01212D
:1031800040F22A30FEF77AF90120FEF784F905FBB8
:1031900004F13046FFF742FD00BF9948FDF78EF974
:1031A0000028FAD000BF9448006818B99348007806
:1031B0002A28F8D0914800782A2802D08F48007831
:1031C0008DE640468BE67CB504462A25002001901A
:1031D00000908C4800880004834908600D204860F6
:1031E000402088600020C8604FF480600861084675
:1031F000FEF754F97E48406B009002E07C48406B3B
:103200000090009810F0450FF8D0009810F0040FCF
:1032100005D003250420FEF7B7F928467CBD0098A9
:1032200010F0010F05D001250120FEF7ADF9284669
:10323000F4E7FEF74DF9009000980D2802D0102514
:103240002846EBE740F2FF50FEF79EF90020FEF71C
:1032500043F901900198C0F3432020706A49019816
:10326000084201D12846D9E7019810F0004F01D05B
:103270001C20D3E7019810F0804F01D00920CDE742
:10328000019810F0005F01D00A20C7E7019810F004
:10329000805F01D00B20C1E7019810F0006F01D0D2
:1032A0000C20BBE7019810F0806F01D00D20B5E72E
:1032B000019810F0807F01D00E20AFE7019810F444
:1032C000000F01D00F20A9E7019810F4800F01D062
:1032D0001020A3E7019810F4001F01D011209DE7F2
:1032E000019810F4801F01D0122097E7019810F484
:1032F000002F01D0132091E7019810F4802F01D006
:1033000014208BE7019810F4003F01D0152085E7C9
:10331000019810F4803F01D016207FE7019810F447
:10332000004F01D0172079E7019810F4804F01D0A9
:10333000182073E7019810F4005F01D019206DE7A1
:10334000019810F0080F01D01A2067E7284665E7BA
:1033500030B58BB005460C462C48FDF7C2F800216D
:103360002B48FDF793F822488030009001951020FB
:103370000290A00803900020049080200590800017
:10338000069080000790002008904FF400500990AC
:1033900000200A9069461E48FDF74DF801211C489F
:1033A000FDF774F80BB030BD2DE9FF5F82460F4684
:1033B00014462A250020039002908346002601909F
:1033C00080460090B94627B92625284604B0BDE8B6
:1033D000F09F1FE02C00002030000020440000205F
:1033E000FFFF0F005C03002048030020280000209E
:1033F0000080014020000020380000203400002020
:10340000002000102400002008E0FFFD00F0001064
:10341000440402402A20F84908700020F749086057
:10342000F7490860F748F84908600020486088605C
:10343000C860086148610846FEF753F80020FEF7AF
:103440002AF80020FEF748F810F0007F04D00E257F
:10345000284604B0BDE8F09FEC480068022802D17D
:1034600004024FEA5A2A002C20DDB4F5006F1DDC5F
:10347000601E20421AD12046FFF7FBFB0390E44870
:1034800004601020E2494860402088600020C86045
:103490004FF4806008610846FEF700F81020FEF740
:1034A00043FE05462A2D04D02846D2E72625284685
:1034B000CFE7D84800880004D54908600D2048604F
:1034C000402088600020C8604FF480600861084692
:1034D000FDF7E4FF0D20FEF727FE05462A2D01D05B
:1034E0002846B6E70020FDF7F7FF0190DFF814B398
:1034F0001EE0ABF1010BC74800880004C449086016
:103500000D204860402088600020C8604FF4806033
:1035100008610846FDF7C2FF0D20FEF705FE0546CF
:103520002A2D01D0284694E70020FDF7D5FF019011
:10353000019810F4807F02D1BBF1000FD9D1BBF10B
:10354000000F01D1292084E7B148C0F800A018205D
:10355000AF494860402088600020C8604FF4806018
:1035600008610846FDF79AFF1820FEF7DDFD0546C5
:103570002A2D01D028466CE7A14804600020A64906
:103580000860A64807609F489F4908600846446055
:103590000398000188600020C8600861012048612C
:1035A0000846FDF79EFF9E48006802286AD139E070
:1035B0004FF48040FDF7DEFFA0B391480068801B08
:1035C000202820D28E480078801B10F0030F04D1F1
:1035D0008B480068801B800804E089480068801BD5
:1035E0008008401C00904FF0000808E0D9F8000067
:1035F000FDF79CFF08F1010809F10409361D009848
:1036000080450FD2F2E74FF0000805E059F8280096
:10361000FDF78CFF08F10108B8F1080FF6D309F1A6
:10362000200920367F48406B40F21A610842BFD023
:103630000820FDF79FFF28B10820FDF7A5FF04250E
:10364000284606E70220FDF795FF28B10220FDF786
:103650009BFF02252846FCE61020FDF78BFF28B1D2
:103660001020FDF791FF05252846F2E64FF4007083
:10367000FDF780FFF0B34FF40070FDF785FF0725DD
:103680002846E6E666480068012813D1012144F285
:103690001A30FDF7F3FE00BF5848006818B95648C5
:1036A00000782A28F8D0544800782A2828D0524890
:1036B0000078CEE65A480068E0B9012140F21A309D
:1036C000FDF7DCFE21463846FFF742FE0120FDF7FC
:1036D000E2FE00BF5448FCF7F1FE0028FAD000BF1C
:1036E0004648006818B9444800782A28F8D042486B
:1036F000007800E004E02A2802D03F480078A8E6DD
:1037000040F2FF50FDF740FF02A8FFF75CFD0546C1
:1037100003E002A8FFF757FD05462A2D07D19DF8C3
:1037200008000728F5D09DF808000628F1D02846A3
:103730008FE62DE9FE4F8346884614461E462A250D
:10374000002002900190002781460090C246B8F107
:10375000000F03D126252846BDE8FE8F2A202649E2
:103760000870002025490860254908602548264939
:103770000860002048608860C860086148610846A9
:10378000FDF7AFFE0020FDF786FE0020FDF7A4FE4A
:1037900010F0007F02D00E252846DDE71B480068A8
:1037A000022802D104024FEA5B2B002C20DDB4F585
:1037B000006F1DDC601E20421AD12046FFF759FA27
:1037C000029013480460102011494860402088602E
:1037D0000020C8604FF4806008610846FDF75EFE77
:1037E0001020FEF7A1FC05462A2D1FD02846B3E77E
:1037F00026252846B0E700003400002038000020CD
:103800002C000020FFFF0F005C03002020000020A0
:103810004803002024000020300000204000002049
:10382000280000200080014000200010FE48008891
:103830000004FE4908600D20486040208860002098
:10384000C8604FF4806008610846FDF727FE0D2030
:10385000FEF76AFC05462A2D01D028467CE7012E9A
:103860007AD906FB04F0B0F1007F02D32625284662
:1038700072E7EF48006838B1ED480068012803D0CE
:10388000EB48006802282FD1E74800880004E74988
:10389000086037204860402088600020C8604FF4EE
:1038A000806008610846FDF7F9FD3720FEF73CFC13
:1038B00005462A2D01D028464EE7DC480660172031
:1038C000DA494860402088600020C8604FF480607A
:1038D00008610846FDF7E2FD1720FEF725FC0546C6
:1038E0002A2D01D0284637E7D048C0F800B019206B
:1038F000CE494860402088600020C8604FF4806056
:1039000008610846FDF7CAFD1920FEF70DFC0546C3
:103910002A2D01D028461FE706FB04F0C5490860A0
:103920000120C5490860C548C0F80080C448C549A1
:10393000086006FB04F048600298000188600020DF
:10394000C8600861012048610846FDF7CAFDBE480D
:10395000006802287ED13AE0D0E04FF48040FDF7C5
:1039600009FEA0B3B3480068C01B20280FD34FF056
:10397000000905E05AF82900FDF7D8FD09F1010911
:10398000B9F1080FF6D30AF1200A20371FE0A94841
:103990000078C01B10F0030F04D1A6480068C01BBC
:1039A000800804E0A3480068C01B8008401C009009
:1039B0004FF0000908E0DAF80000FDF7B7FD09F163
:1039C00001090AF1040A3F1D00988145F3D39F487D
:1039D000406B40F21A310842BFD00820FDF7CAFD03
:1039E00028B10820FDF7D0FD04252846B4E60220C2
:1039F000FDF7C0FD28B10220FDF7C6FD02252846CF
:103A0000AAE61020FDF7B6FD28B11020FDF7BCFD99
:103A100005252846A0E64FF40070FDF7ABFD30B158
:103A20004FF40070FDF7B0FD0725284694E64FF4EB
:103A30008070FDF79FFD002860D07D48006838B198
:103A40007B480068012803D079480068022855D1D6
:103A5000002000E015E0754908600C204860402017
:103A600088600020C8604FF4806008610846FDF758
:103A700015FD0C20FEF758FB05462A2D3ED02846A2
:103A80006AE671480068012813D1012144F21A3016
:103A9000FDF7F4FC00BF6E48006818B96D48007867
:103AA0002A28F8D06B4800782A2827D0694800785F
:103AB00052E66548006808BB012140F21A30FDF764
:103AC000DDFC0120FDF7E7FC06FB04F14046FFF7B3
:103AD0003FFC00BF6048FCF7F1FC0028FAD000BFB3
:103AE0005B48006818B95B4800782A28F8D0594824
:103AF00000782A2802D0574800782DE640F2FF507F
:103B0000FDF742FD01A8FFF75EFB054603E001A8B3
:103B1000FFF759FB05462A2D07D19DF80400072819
:103B2000F5D09DF804000628F1D0284614E6474851
:103B3000406B10F4405F01D0012070470020FCE78B
:103B400010B52A240020394908600C204860402024
:103B500088600020C8604FF4806008610846FDF767
:103B60009DFC0C20FEF7E0FA0446204610BD2DE92E
:103B7000FC4105460E462A240027002001900090B3
:103B800036484068202111EA105F03D125242046E1
:103B9000BDE8FC812D484068C0B2801C3049B1FBB3
:103BA000F0F001900020FDF797FC10F0007F02D0AC
:103BB0000E242046ECE71E480068022801D16D0A59
:103BC000760A1B48006838B119480068012803D0FC
:103BD0001748006802284CD114480560202013497A
:103BE0004860402088600020C8604FF48060086111
:103BF0000846FDF753FC2020FEF796FA04462A2CCF
:103C000001D02046C4E709480660212007494860E2
:103C1000402088600020C8604FF48060086108463A
:103C2000FDF73CFC21201DE024000020480300207B
:103C3000200000202C000020300000204000002048
:103C4000FFFF0F005C0300202800002000800140DF
:103C50003800002034000020002000101003002055
:103C600040190100FEF760FA04462A2C01D02046D4
:103C70008EE70020FE4908602620486040208860CA
:103C80000020C8604FF4806008610846FDF706FC1C
:103C90002620FEF749FA04462A2C01D0204677E771
:103CA000002700E07F1C01988742FBD36846FFF79E
:103CB0008AFA044603E06846FFF785FA04462A2C90
:103CC00007D19DF800000728F5D09DF800000628D0
:103CD000F1D020465CE770B504462A2514B92625A4
:103CE000284670BDE34800880004E14908600D20C3
:103CF0004860402088600020C8604FF48060086100
:103D00000846FDF7CBFB0D20FEF70EFA05462A2DDF
:103D100001D02846E5E70020FDF7DEFB20602846BD
:103D2000DFE770B504462A2600250020FDF7D4FB06
:103D300010F0007F02D00E26304670BD4020CC49E6
:103D4000086010204860402088600020C8604FF460
:103D5000806008610846FDF7A1FB1020FEF7E4F93A
:103D600006462A2E01D03046E7E7C2480088000404
:103D7000BF49086037204860402088600020C86044
:103D80004FF4806008610846FDF788FB3720FEF796
:103D9000CBF906462A2E01D03046CEE7B648B749C1
:103DA000086040204860602088600220C8600020D1
:103DB0000861012048610846FDF793FB0020AC49EB
:103DC00008600D204860402088600020C8604FF4E3
:103DD000806008610846FDF761FB0D20FEF7A4F93D
:103DE00006462A2E01D03046A7E70EE04FF40040E9
:103DF000FDF7C0FB48B1002504E0FDF794FB44F853
:103E000025006D1C082DF8D320349D48406B40F2EE
:103E10002A610842EAD00820FDF7ACFB28B108204F
:103E2000FDF7B2FB0426304687E70220FDF7A2FB30
:103E300028B10220FDF7A8FB022630467DE72020AE
:103E4000FDF798FB28B12020FDF79EFB06263046A3
:103E500073E74FF40070FDF78DFB30B14FF4007045
:103E6000FDF792FB0726304667E703E0FDF75BFBB3
:103E70002060241D4FF40010FDF77CFB0028F5D1D5
:103E800040F2FF50FDF780FB403C002515E014F8A0
:103E90002500000634F8251001F47F4140EA012096
:103EA00054F8251001F47F0140EA112054F8251040
:103EB00040EA116044F825006D1C102DE7D3304610
:103EC0003BE770B5002400256E480068012867D1E3
:103ED000C003FDF75CFBA8B100BF06E0FDF723FBC4
:103EE0006949096841F82400641C082CF6D3664827
:103EF00000682030644908606448006820306349E5
:103F000008604DE04FF48040FDF741FB002847D0AA
:103F10005F4800685D490968401A20282BD25C4838
:103F200000785A490968401A10F0030F06D1584822
:103F3000006856490968401A800806E0544800683D
:103F400052490968401A8008401C054600240FE0C9
:103F5000504909680868FDF7E9FA641C4D48006893
:103F6000001D4C49086049480068001D4749086029
:103F7000AC42EDD314E0002406E04649096851F84C
:103F80002400FDF7D3FA641C082CF6D341480068DE
:103F90002030404908603D48006820303B490860B7
:103FA0004FF48070FDF7F3FAD8B336480068D0B10B
:103FB0000EE0FDF7B8FA3449096808603248006835
:103FC000001D3149086031480068001D2F49086014
:103FD0004FF40010FDF7CEFA28B12C4800682C49A8
:103FE00009688842E5D32C480068012804D1FFF70E
:103FF000A7FD2A49087002E02A20284908704FF4DA
:104000008070FDF7CEFA00214CF23A30FDF736FA17
:1040100001202349086000201C4908601F480078DF
:1040200070BDFFE70220FDF7B2FA70B10220FDF784
:10403000B8FA00214CF23A30FDF720FA002013497B
:104040000860022015490870EAE70820FDF79FFA8A
:1040500040B30820FDF7A5FA00214CF23A30FDF7F5
:104060000DFA00200949086004200C490870D7E7C0
:104070004803002024000020FFFF0F005C03002005
:104080000080014028000020440000203C00002067
:104090002C000020400000203000002034000020D0
:1040A00038000020FFE72020FDF771FA70B12020D2
:1040B000FDF777FA00214CF23A30FDF7DFF90020E6
:1040C00017490860062017490870A9E71020FDF776
:1040D0005EFA70B11020FDF764FA00214CF23A301C
:1040E000FDF7CCF900200E49086005200D49087045
:1040F00096E74FF40070FDF74AFA78B14FF400707C
:10410000FDF74FFA00214CF23A30FDF7B7F90020E5
:104110000349086007200349087081E72A207FE7E8
:104120003C0000203400002008B501214FF4DE706F
:10413000FDF7FEF84FF40860ADF8000010208DF890
:10414000030003208DF802006946FE48FCF7FAFDE3
:104150004FF61840ADF8000010208DF80300032042
:104160008DF802006946F848FCF7ECFDFF20ADF839
:10417000000010208DF8030003208DF8020069462E
:10418000F248FCF7DFFD4FF47070ADF8000010202E
:104190008DF8030003208DF802006946EC48FCF717
:1041A000D1FD4020ADF8000010208DF80300032061
:1041B0008DF802006946E748FCF7C4FD08BD01B56B
:1041C00002E00098401E009000980028F9D108BD38
:1041D00030B500214CE0002247E00020C2F38114FA
:1041E000C4EB0414DC4D2C44605C8406200E4FF6B6
:1041F000FC742040C2F30114C4EB04142C44645C2E
:1042000020438406200E4FF6FC742040C2F3810444
:10421000C4EB04142C44645C20438406200E4FF647
:10422000FC74204002F00304C4EB04142C44645CCE
:104230002043CA4C24688CB10023C02404EA8013B4
:10424000302404EA80041C44E3B20C2404EAA004F1
:104250001C44E3B203EB9014E3B200E00346C2EB6C
:104260000214BF4D2C446354521CFF2AB5DD491C77
:104270000F29B0DB30BD10B500200EE0002109E0B1
:10428000002200EBC00303EB001301EB8303B54CEA
:104290001A55491C6429F3DB401CB0F5167FEDDB91
:1042A00010BD10B500200EE0002109E0FF2200EB58
:1042B000C00303EB001301EB8303AA4C1A55491CFE
:1042C0006429F3DB401CB0F5167FEDDB10BDF0B5C3
:1042D00005460B4603EBC30606EB031602EBC606C8
:1042E00006F1D0463678C6EB06169D4F3E44705D0B
:1042F00002EBD2777F1003EBC30C0CEB031C07EB34
:104300008C07DFF860C217F80C40164602EBD67730
:104310007F10B2EB470700D1241104F00F040021F5
:1043200008E008260E41264203D14F000326BE4076
:10433000B043491C0429F4DBF0BD10B5402084498A
:10434000103108600220884908700DE08020804903
:10435000143108600F20FFF732FF80207C491031B4
:1043600008600F20FFF72BFF7F4801780078401E80
:104370007D4A10700029E9D1402075491431086048
:104380000220114608700DE0802071491431086048
:104390000F20FFF714FF80206D49103108600F20B7
:1043A000FFF70DFF704801780078401E6E4A1070CC
:1043B0000029E9D1402066491031086002201146E9
:1043C00008700DE080206249143108600F20FFF76B
:1043D000F6FE80205E49103108600F20FFF7EFFEE7
:1043E000614801780078401E5F4A10700029E9D1C9
:1043F00010BD4FF48061544A103211608910544A44
:1044000014321160121F1160121D1160121F116011
:1044100089004D4A1432116089104D4A14321160DE
:10442000121F1160121D1160121F116049001160EE
:104430004910121D1160121F1160121D1160121F10
:1044400011604901404A143211604049C96889B27B
:10445000464A11601146098801F47F41116000212C
:10446000434A117016E042490978415C3F4A12689C
:104470001143404A116011460968344AD1609115D0
:10448000334A14321160121F116039490978491CEE
:10449000374A117036490978C829E4DB4FF40051D6
:1044A000294A103211604911294A14321160121F31
:1044B0001160121D1160121F11608021121D116008
:1044C0008900116049101160121F1160121D1160E6
:1044D000121F116080211160704710B540211D48E6
:1044E000FCF7DBFC0F20FFF76AFE4FF40061154874
:1044F000FCF7D3FC0F20FFF762FE10211248FCF7F7
:10450000CCFC0F20FFF75BFE80210E48FCF7C5FCBA
:10451000FF20FFF754FE10BD10B580210948FCF7BD
:10452000BEFCFF20FFF74BFE10210748FCF7B7FC4D
:104530000F20FFF744FE4FF400610248FCF7AFFC88
:104540000F2019E000080140000C0140001001405C
:10455000001C01400020014092D200084C000020C5
:104560003C040020000002684800002050000020A9
:104570004900002054000020FFF721FE4021B648EA
:10458000FCF78DFCFF20FFF71AFE10BD10B5FFF7FA
:10459000CBFD00F06FF94FF48051B048FCF77DFC83
:1045A0004FF48041AD48FCF778FCAD480068012825
:1045B00009D1C102A948FCF772FC4FF40041A74899
:1045C000FCF76BFC09E04FF40061A448FCF765FCC4
:1045D0004FF40041A148FCF762FCFFF79DFF4FF448
:1045E00080609E491431086080109E490860400038
:1045F0000860000199491031086040209949091F5D
:1046000008608020091D0860FFF7E2FDFFF733FE18
:1046100010BD10B5044624B908219048FCF73DFCB4
:1046200005E0012C03D108218C48FCF738FC10BDB3
:1046300010B504468A4804600068012809D1C10207
:104640008648FCF72CFC4FF400418448FCF725FC1D
:1046500009E04FF400618148FCF71FFC4FF4004172
:104660007E48FCF71CFCFFF7B3FD10BD7C480068DA
:10467000704770B5064600250EE0002409E005EB02
:10468000C50000EB051004EBC00000F1D04006703F
:10469000641CC82CF3DB6D1CB5F5167FEDDBFFF752
:1046A00000FE70BD2DE9F0410746FFF716FF47BB3E
:1046B000002423E0FFF741FE002618E0002510E06B
:1046C00006EBC60000EB061005EBC00000F1D04081
:1046D0000078C0EB001064490844005D6349485508
:1046E0006D1CC82DECD36148FFF783FE761CB6F530
:1046F000167FE3D35D48FFF77CFE641C0F2CD9D3F3
:1047000020E0012F1ED100241AE0FFF716FE00263C
:104710000FE0002507E02A4631462046FFF7D7FD87
:10472000524948556D1CC82DF5D35048FFF761FE1E
:10473000761CB6F5167FECD34C48FFF75AFE641C86
:104740000D2CE2D3FFF7E8FEFFF795FDBDE8F08101
:10475000F0B51546002807DBB0F5487F04DA0029DC
:1047600002DBB1F5167F00DBF0BDC71700EB9777D2
:10477000BB10C71700EB9777BF10A0EB870401EBC6
:10478000C10606EB011603EBC60606F1D0463278E9
:104790000626A6EB44070326BE40B24305F00305F8
:1047A0000627A7EB440605FA06F61643F2B201EB1C
:1047B000C10606EB011603EBC60606F1D0463270C1
:1047C000C71700EB5777FB10C71700EB5777FF10A1
:1047D000A0EBC70401EBC10606EB011603EB86064E
:1047E000234FF25DC4F107070126BE401643F2B223
:1047F00001EBC10606EB011603EB86061C4FF255D2
:1048000000BFB1E770B50246002A07DBB2F5487F6A
:1048100004DA002902DBB1F5167F01DB002070BD50
:10482000D61702EB9676B510D61702EB9676B61031
:10483000A2EB860301EBC10000EB011005EBC00009
:1048400000F1D04004780620A0EB4300044104F0BE
:1048500003042046E3E7000000200140000C014073
:104860004C000020141C01403C0400207403002074
:104870000000026800B589B001210802FCF74BFD79
:10488000012140F2E110FCF753FD4CF20370ADF84A
:10489000200018208DF8230003208DF8220008A99D
:1048A0003148FCF74FFA4FF68870ADF8200008A9A0
:1048B0002E48FCF747FA4FF23F00ADF8200008A958
:1048C0002B48FCF73FFA3F20ADF8200008A9294803
:1048D000FCF738FA4FF46050ADF8200008A92248E0
:1048E000FCF730FA3020ADF8200008A91E48FCF78C
:1048F00029FA4FF4A050ADF8200008A91D48FCF794
:1049000021FA0320ADF8200008A91848FCF71AFA8C
:1049100003200190002002900320039000200490C7
:104920000590069007900420134908600020486015
:1049300088601020C8600020086148618861C861F3
:104940004FF480500862002048628862C86201A863
:10495000086348630846FBF7D4FE01210420FCF7F6
:104960002EF809B000BD00000014014000180140FD
:10497000001C0140002001403C13002000B58FB016
:1049800001210802FCF7C7FC012140F26110FCF78D
:10499000CFFC4DF6B300ADF8380003208DF83A0097
:1049A00018208DF83B000EA9FE48FCF7CBF94FF418
:1049B000F060ADF838000EA9FB48FCF7C3F94020C1
:1049C000ADF8380003208DF83A0048208DF83B0000
:1049D0000EA9F448FCF7B6F94020ADF838000EA94E
:1049E000F248FCF7AFF90120019003200290022069
:1049F00003900120049010200590022006900020D2
:104A0000079040200890C0020990A1200A9015202C
:104A10000B9001A80C900D9005A8FBF7E0FE01217A
:104A20001020FBF7E3FF0FB000BD00219022E04B08
:104A30001A700022DF4B1A704FF0E04211680170CB
:104A40000A0A42700A0C82700A0EC2707047014650
:104A50004FF480708A88521C8A808A88402A11D13B
:104A600000228A804A88521C4A804A88B2F5806FA8
:104A700008D100224A800A88521C0A800A88012A2A
:104A800000D140007047002100207022C84B1A70EE
:104A90001206117811F0010F01D0012006E001F09B
:104AA0004002402A01D1402000E00020704730B58C
:104AB0004FF080744025FFF7E6FF054603E0FFF75F
:104AC000E2FF0546641E402D01D0002CF7D10CB941
:104AD0004FF48065284630BD2DE9FF4707461C4648
:104AE0000025A8464FF480794026AA4641E0802060
:104AF000AF4908700020AF4908700870BDF8061073
:104B0000BDF8040001EB8020BDF8081001EB801017
:104B1000A8490870BDF80610BDF8040001EB80201C
:104B2000BDF8081001EB8010000AA24908704FEA96
:104B3000C82000F5006A04E0785D4FF0E04108709D
:104B40006D1C5545F8D310209949087000BF4021CD
:104B50009448FCF788F90028F9D0FFF7A8FF06462B
:104B6000402E06D108F10108641E01A8FFF76FFF6F
:104B7000814624B1B9F5807F01D1402EB7D046EAF5
:104B8000090004B0BDE8F0872DE9FF4F06461C463A
:104B9000002500274FF480784FF0400AAB463AE0FA
:104BA000002083490870834908700870BDF806101A
:104BB000BDF8040001EB8020BDF8081001EB801067
:104BC0007C490870BDF80610BDF8040001EB802098
:104BD000BDF8081001EB8010000A764908703020FB
:104BE000734908704FF0000901E009F10109B9F5B6
:104BF000FA7FFAD3F80200F5006B04E04FF0E040D2
:104C0000007870556D1C5D45F8D37F1C641E01A8AB
:104C1000FFF71DFF804614B1B8F5807FC0D0FFF7C5
:104C200046FF82464AEA080004B0BDE8F08F2DE94D
:104C3000FF4707461C460025A8464FF480794026CA
:104C4000AA463BE080205A49087000205949087064
:104C500008200870BDF80610BDF8040001EB8020A4
:104C6000BDF8081001EB801052490870BDF806101D
:104C7000BDF8040001EB8020BDF8081001EB8010A6
:104C8000000A4C4908704FEA881000F1400A04E01D
:104C9000785D4FF0E04108706D1C5545F8D3102049
:104CA00043490870FFF703FF0646402E06D108F17E
:104CB0000108641E01A8FFF7CAFE814624B1B9F5B8
:104CC000807F01D1402EBDD046EA090004B0BDE886
:104CD000F0872DE9FF4706461C46002700254FF4C4
:104CE00080784FF04009AA4633E000203049087030
:104CF0003049087008200870BDF80610BDF804009F
:104D000001EB8020BDF8081001EB801029490870E4
:104D1000BDF80610BDF8040001EB8020BDF80810B6
:104D200001EB8010000A23490870302020490870E8
:104D3000B80100F1400A04E04FF0E04000787055FF
:104D40006D1C5545F8D37F1C641E01A8FFF77FFE3C
:104D5000804614B1B8F5807FC7D0FFF7A8FE814622
:104D600049EA080004B0BDE8F08703B560201049A7
:104D70000870BDF80210BDF8000001EB8020BDF8FE
:104D8000041001EB80100B490870BDF80210BDF84B
:104D9000000001EB8020BDF8041001EB8010000A38
:104DA000044909E0001401400018014000200140BE
:104DB00000000270000001700870D02029490870BE
:104DC000FFF775FE0CBDFF20264908704020704794
:104DD00008B51020FBF762FCFFF7D0FD6846FFF72F
:104DE00024FE08BD7CB50020ADF80000ADF802003F
:104DF000ADF80400002504E055201B494855681C07
:104E000085B2B5F5006FF7DBDDE90001FFF7ADFF17
:104E100001231548DDE90012FFF75EFE13A006F03E
:104E200077F9002406E01048015D18A006F070F93B
:104E3000601C84B2642CF6DB01231648DDE9001205
:104E4000FFF7A2FE14A006F063F9002406E0114863
:104E5000015D0EA006F05CF9601C84B2642CF6DBE8
:104E60007CBD000000000270741300200D0A577210
:104E7000697474656E20746F20746865206E756D3A
:104E8000626572206F66A3BA200D0A002578202083
:104E90000D000000741B00200D0A52656164207330
:104EA00065766572616CA3BA200D0A000021314855
:104EB00001600121416040F6FF7181600020704770
:104EC00001462C4842680068824219D0294840684F
:104ED000294A115427488068401E264A906010468F
:104EE000406840F6FF72904203DB00222148426096
:104EF00004E020484068401C1E4A50600020704773
:104F00004FF0FF30FBE702461A48016840F6FF7099
:104F1000814201DB002100E0491C164840688842BC
:104F20000AD01548405C1070124801608068401C2F
:104F3000104B9860002070474FF0FF30FBE70D48A2
:104F400001684068814205DA0A4841680068081A29
:104F5000401E70470748406800F6FF700549096821
:104F6000401AF6E700B5FFF7EAFF40F6FF71081AAE
:104F700000BD0000743300207423002010B5F7A09A
:104F800006F0C6F810BD2DE9FF4106460F46002584
:104F9000002404E02402681C305C04436D1C042DD2
:104FA000F8DB00940020ADF80400ADF80600ADF881
:104FB0000800ADF80C000C20ADF80A000021E8480C
:104FC000FCF7BBFB6946E648FCF749FB0121E448D6
:104FD000FCF7B3FBFFF76AFFE2480460642000F0CF
:104FE000C9FDDEA006F094F8BDE8FF8110B5DD48EC
:104FF0000168DDA006F08CF810BD70B504460D46C2
:10500000DA480178D8A006F083F870BD70B5044680
:105010000E46607830B90020D4490870CFA006F061
:1050200077F839E06078012832D1D0490870012240
:10503000CFA1D04805F050F805462DB30120FFF769
:10504000E8FA642000F096FD0020FFF7E2FA642001
:1050500000F090FD0120FFF7DCFA642000F08AFDEB
:105060000020FFF7D6FA642000F084FD0120FFF74E
:10507000D0FA642000F07EFD0020FFF7CAFA01217B
:10508000BDA006F045F807E0B4A006F041F803E043
:105090000221B9A006F03CF870BD0EB5B948006811
:1050A00000B10EBD0120ADF8080004208DF80B0002
:1050B00002A9B548FBF746FE00210846FBF746FF6C
:1050C0000120009000208DF804000C208DF80500D0
:1050D00001208DF806006846FBF740FA9FA006F015
:1050E00017F80120FFF795FA01210846FBF775FF35
:1050F0000020FFF78EFA00208DF806006846FBF7C7
:105100002DFA96A006F004F800BFCAE710B50020FB
:10511000FFF7C8FA91A005F0FBFF10BD70B505467A
:105120000E46FFF7A3FAC4B221468FA005F0F0FFA8
:1051300070BD70B504460D469248006800B170BD60
:10514000607810B16078012806D16078FFF770FAB6
:1051500082A005F0DDFF03E0022187A005F0D8FF63
:1051600000BFECE710B50120FFF753FA642000F010
:1051700001FD0020FFF74DFA642000F0FBFC012048
:10518000FFF747FA642000F0F5FC0020FFF741FA32
:1051900001F077FB18B971A005F0BAFF03E0032115
:1051A00075A005F0B5FF0120FFF733FA642000F089
:1051B000E1FC0020FFF72DFA642000F0DBFC012069
:1051C000FFF727FA642000F0D5FC0020FFF721FA52
:1051D00010BD10B56B48006800B110BD0120FFF78D
:1051E00018FA642000F0C6FC0020FFF712FA6420D1
:1051F00000F0C0FC0120FFF70CFA642000F0BAFCBC
:105200000020FFF706FA01F050FC18B953A005F092
:105210007FFF03E0032158A005F07AFF0120FFF78C
:10522000F8F9642000F0A6FC0020FFF7F2F96420F2
:1052300000F0A0FC0120FFF7ECF9642000F09AFCDC
:105240000020FFF7E6F900BFC7E770B504460E4639
:10525000607808B9002513E06078012801D1552550
:105260000EE06078022801D1AA2509E060780328C1
:1052700001D1FF2504E002213FA005F049FF70BDE8
:1052800042480560A07808B9002513E0A0780128FD
:1052900001D155250EE0A078022801D1AA2509E008
:1052A000A078032801D1FF2504E0022132A005F0F7
:1052B0002FFFE4E73548456028A005F029FF00BF2F
:1052C000DDE7F8B505460E463048007800F00304E7
:1052D00004F130008DF800002C48007900F0030440
:1052E00004F130008DF8010000208DF802006946BD
:1052F00027A005F00DFFF8BD38B504460D466946F8
:10530000012003F001FE0098202802D10120009026
:1053100010E00098302802D1022000900AE00098A6
:10532000402802D10320009004E0FA2112A005F0E9
:10533000EFFE38BD0CA0009905F0EAFE00BFF8E7CB
:1053400038B504460D466946002003F0DDFD00989F
:1053500020281FD1012000902EE000004F4B0000BC
:10536000003801401800002025640000580000208B
:10537000303A0000E00000204572726F723A2564F6
:105380000000000014000020000801406C00002014
:10539000257300000098302802D1022000900BE015
:1053A0000098402802D10320009005E0FA21AFF2D6
:1053B000380005F0ADFE38BDAFF25400009905F09D
:1053C000A7FE00BFF7E770B504460D46607820B928
:1053D0000121FA4803F094FD1DE06078012804D112
:1053E0000121F64803F08CFD15E06078022804D115
:1053F0000121F34803F084FD0DE06078032804D117
:105400000121F04803F07CFD05E00221AFF2980095
:1054100005F07EFE70BDAFF2BC0005F079FE00BF66
:10542000F8E770B504460D466078012804D10021E4
:10543000E54803F065FD15E06078022804D10021FD
:10544000E24803F05DFD0DE06078032804D10021FF
:10545000DF4803F055FD05E00221AFF2E40005F05E
:1054600057FE70BDAFF20C1005F052FE00BFF8E71A
:105470002DE9F04104460F4665782D02A0780543DA
:10548000E6783602207906433146284602F05AFF74
:10549000AFF2381005F03CFEBDE8F0812DE9F04197
:1054A0000446884666783602A0780643E7783F02CD
:1054B00020790743607908B9002515E06079012853
:1054C00001D1552510E06079022801D1AA250BE011
:1054D0006079032801D1FF2506E00221AFF26810B0
:1054E00005F016FEBDE8F0812A4639463046FFF742
:1054F0002FF9AFF2981005F00BFE00BFF2E72DE98F
:10550000F0470446894665782D02A078054394F853
:1055100003804FEA0828207940EA080867793F02AB
:10552000A0790743E6793602207A064333463A46A5
:105530004146284602F01BFFAFF2E01005F0E8FDFF
:10554000BDE8F0872DE9F05F04468B4666783602A9
:10555000A0780643E7783F022079074394F8058056
:105560004FEA0828A07940EA080894F807904FEA23
:105570000929207A40EA0909607A08B9002515E06E
:10558000607A012801D1552510E0607A022801D106
:10559000AA250BE0607A032801D1FF2506E002214D
:1055A000AFF22C2005F0B4FDBDE8F09F8948D0F89B
:1055B00000A005604B4642463946304602F0D7FE11
:1055C0008448C0F800A0AFF26C2005F0A1FD00BF38
:1055D000EAE72DE9F0470446894665782D02A07870
:1055E000054394F803804FEA0828207940EA080828
:1055F00067793F02A0790743E6793602207A0643AD
:1056000033463A464146284602F0DFFEAFF2B42068
:1056100005F07EFDBDE8F0872DE9F0470446894698
:1056200065782D02A078054394F803804FEA082896
:10563000207940EA080867793F02A0790743E679B4
:105640003602207A064343463A464146284602F04F
:105650008EFE33463A463146284602F088FE3346EF
:105660002A464146284602F082FE33463A464146E3
:10567000384602F07CFEAFF21C3005F049FDBDE873
:10568000F0872DE9F0410446884665782D02A07820
:105690000543E67836022079064367793F02A07910
:1056A00007433A463146284602F052FFAFF25430E3
:1056B00005F02EFDBDE8F0812DE9F0410446884655
:1056C00065782D02A0780543E678360220790643F6
:1056D00067793F02A07907433A463146284602F0EF
:1056E00041FFAFF2883005F013FDBDE8F0812DE9F0
:1056F000FC5F04468B4665782D02A0780543E6786A
:1057000036022079064367793F02A079074394F86F
:1057100007804FEA0828207A40EA080894F80990A0
:105720004FEA0929A07A40EA090994F80BA04FEA48
:105730000A2A207B40EA0A0A43463A46314628466E
:10574000CDE9009A03F04CF8AFF2F03005F0E0FC40
:10575000BDE8FC9F2DE9FC5F04468B4665782D0271
:10576000A0780543E67836022079064367793F0240
:10577000A079074394F807804FEA0828207A40EA86
:10578000080894F809904FEA0929A07A40EA090923
:1057900094F80BA04FEA0A2A207B40EA0A0A434603
:1057A0003A4631462846CDE9009A03F035F8AFF283
:1057B000544005F0ADFCBDE8FC9F0000D850010846
:1057C00098880108A831010828D3000848D30008A8
:1057D00068D300086C00002010B502F0ACFDAFF2F9
:1057E000844005F095FC10BD70B504460E46607807
:1057F00008B9002514E06078012801D155250FE093
:105800006078022801D1AA250AE06078032801D136
:10581000FF2505E00221AFF2A04005F079FC70BD44
:105820002846FEF726FFAFF2CC4005F071FC00BF22
:10583000F5E72DE9F04104460F469C48006808B1A1
:10584000BDE8F08165782D02A0780543E678360240
:105850002079064332462946601D03F0F1FAAFF283
:10586000045005F055FC00BFEAE72DE9F04104467D
:1058700088468E48006808B1BDE8F0816678360237
:10588000A0780643E7783F02207907433A4631463D
:10589000601D00F09FFD054625B9AFF2405005F0B0
:1058A00037FC0CE0022D05D10421AFF2345005F095
:1058B0002FFC04E0FA21AFF2405005F029FC00BFB4
:1058C000DAE770B504460D46207820B9012D02D1E3
:1058D000FFF754FBE8E02078012804D12946204650
:1058E000FFF751FBE0E02078022802D1FFF77EFBB2
:1058F000DAE02078062804D129462046FFF77DFB10
:10590000D2E02078072804D129462046FFF77EFB05
:10591000CAE02078082802D1FFF7BFFBC4E0207856
:105920000A2802D1FFF7F2FBBEE020780C2804D150
:1059300029462046FFF7F2FBB6E020780D2804D177
:1059400029462046FFF7F5FBAEE020780E2802D16D
:10595000FFF708FCA8E020780F2802D1FFF739FCF8
:10596000A2E02078102804D129462046FFF76DFCDC
:105970009AE02078112804D129462046FFF7A1FC9F
:1059800092E020781C2804D129462046FFF7B4FC79
:105990008AE020781D2804D129462046FFF7D0FC54
:1059A00082E020781E2804D129462046FFF70BFD0F
:1059B0007AE020781F2804D129462046FFF731FDE0
:1059C00072E02078202804D129462046FFF750FDB8
:1059D0006AE02078212804D129462046FFF75EFDA1
:1059E00062E02078222804D129462046FFF787FD6F
:1059F0005AE02078232804D129462046FFF7A2FD4B
:105A000052E02078242804D129462046FFF7E1FD02
:105A10004AE02078252804D129462046FFF7FCFDDE
:105A200042E02078262804D129462046FFF729FEA7
:105A30003AE02078272804D129462046FFF73CFE8B
:105A400032E02078282804D129462046FFF74FFE6F
:105A50002AE02078292804D129462046FFF77AFE3B
:105A600022E020782E2802D1FFF7B6FE1CE0207835
:105A70002F2804D129462046FFF7B6FE14E02078EF
:105A8000302804D129462046FFF7D3FE0CE02078C9
:105A9000702804D129462046FFF7E7FE04E00021E4
:105AA000AFF22C7005F034FB70BD00001400002034
:105AB00010B5C3084FF47A7403FB04F24A434FF065
:105AC000E0235A6100234FF0E024A36123461B69C1
:105AD00043F00303236110BDF1B5009806F050FDBB
