:020000040800F2
:1000000000040020CF010008DD010008DF01000826
:10001000E1010008E3010008E5010008000000001C
:10002000000000000000000000000000E7010008E0
:10003000E901000800000000EB010008ED010008E4
:100040007D1200087F120008811200088312000848
:100050008512000887120008891200088B12000818
:100060008D1200088F1200089112000893120008E8
:100070009512000897120008991200089B120008B8
:100080009D1200089F120008A1120008EF0100084D
:10009000EF010008EF010008EF010008AB120008B3
:1000A000AD120008AF120008B1120008B312000828
:1000B000B5120008B7120008B9120008BB120008F8
:1000C000BD120008BF120008C1120008C3120008C8
:1000D000C5120008C7120008C9120008CB12000898
:1000E000CD120008CF120008D1120008D312000868
:1000F000D5120008D7120008D9120008DB12000838
:10010000DD120008DF120008E1120008E312000807
:10011000E5120008E7120008E9120008EB120008D7
:10012000ED120008EF120008F1120008F3120008A7
:1001300000F002F800F03AF80AA090E8000C8244BF
:100140008344AAF10107DA4501D100F02FF8AFF29C
:10015000090EBAE80F0013F0010F18BFFB1A43F0A5
:1001600001031847BC1F0000DC1F0000103A24BF29
:1001700078C878C1FAD8520724BF30C830C144BF0C
:1001800004680C607047000000230024002500264E
:10019000103A28BF78C1FBD8520728BF30C148BFEA
:1001A0000B6070471FB51FBD10B510BD01F084FD79
:1001B0001146FFF7F7FF00F0C4FF01F0A2FD03B402
:1001C000FFF7F2FF03BC01F0D7F8000070470B48BF
:1001D00080470B4981F308880A480047FEE7FEE79D
:1001E000FEE7FEE7FEE7FEE7FEE7FEE7FEE7FEE7E7
:1001F00005480649044A064B70470000CD01000837
:1002000080080020310100088002002080080020C2
:100210008002002031490143314A1160704770B5B6
:10022000002100230F22C4780CB32D4C246804F461
:10023000E064C4F5E064210AC1F10403CA404478D3
:1002400004FA03F18478144021430901254C06780F
:10025000A155047804F01F050124AC4005786D1108
:100260004FF0E02606EB8505C5F8004109E004786B
:1002700004F01F050124AC401B4D0678761145F8AB
:10028000264070BD194A0A400243154B1B1F1A60D5
:10029000704739B1124A121D12680243104B1B1DE0
:1002A0001A6006E00E4A121D126882430C4B1B1D99
:1002B0001A607047042808D14FF0E021096941F025
:1002C00004014FF0E022116107E04FF0E0210969DD
:1002D00021F004014FF0E022116170470000FA059F
:1002E0000CED00E000E400E080E100E080FFFF1F93
:1002F00010B50446C549601A8C422FD009DCC448A9
:10030000201810D0B0F5806F16D0B0F5006F4AD12C
:100310001BE0B0F5806F2AD0B0F5006F30D0B0F59B
:10032000406F40D135E00121042000F0F9FA0021AE
:10033000042000F0F5FA37E00121082000F0F0FA7F
:100340000021082000F0ECFA2EE00121102000F03E
:10035000E7FA0021102000F0E3FA25E00121202037
:1003600000F0DEFA0021202000F0DAFA1CE0012182
:10037000402000F0D5FA0021402000F0D1FA13E02F
:100380000121802000F0CCFA0021802000F0C8FA82
:100390000AE00121080200F0C3FA00214FF4807046
:1003A00000F0BEFA00E000BF00BF10BD10B5012193
:1003B000084600F0B5FA0021012000F0B1FA10BDA6
:1003C0002DE9F041024600250026002000230024EC
:1003D000002791F803C00CF00F0591F803C01CF042
:1003E000100F03D091F802C04CEA050591F800C047
:1003F000BCF1000F31D0146800202BE04FF0010C4D
:100400000CFA00F3B1F800C00CEA03069E4220D1BA
:1004100083004FF00F0C0CFA03F7BC4305FA03FC02
:100420004CEA040491F803C0BCF1280F06D14FF048
:10043000010C0CFA00FCC2F814C00AE091F803C0E9
:10044000BCF1480F05D14FF0010C0CFA00FCC2F8CA
:1004500010C0401C0828D1D31460B1F800C0BCF112
:10046000FF0F34DD546800202EE000F1080C4FF03F
:10047000010808FA0CF3B1F800C00CEA03069E422A
:1004800021D183004FF00F0C0CFA03F7BC4305FA9F
:1004900003FC4CEA040491F803C0BCF1280F05D119
:1004A00000F1080C08FA0CF8C2F8148091F803C0A7
:1004B000BCF1480F07D100F1080C4FF0010808FA11
:1004C0000CF8C2F81080401C0828CED35460BDE858
:1004D000F0814FF6FF710180022181700421C1700B
:1004E00070470246002093680B4201D0012000E0D3
:1004F000002070470146886880B27047024600209D
:10050000D3680B4201D0012000E000207047014673
:10051000C86880B2704701617047416170470AB195
:10052000016100E041617047C16070474FF4803263
:100530000A438261816182618269826970470246F1
:100540000020344B18684FF68073184040EA0210C0
:100550000843304B186070472F49C8617047F0B5A9
:100560000A4600230024002100252A4E7168C0F3AA
:10057000034583B200F44016B6F5401F08D121F0C0
:100580007061244E766826F07066224F7E6012E01D
:1005900000F48016B6F5801F06D1032606FA05F48E
:1005A000A14341F0706106E0460D360103FA06F6FC
:1005B000B14341F0706122B1460D360103FA06F6EF
:1005C0003143144E7160F0BD30B500228B071C0F13
:1005D0000F2303FA04F20F4B08338C1053F8243026
:1005E00093430C4C08348D1044F8253023468C106E
:1005F00053F824308C07240F00FA04F42343054CED
:1006000008348D1044F8253030BD0000001401403E
:1006100000F8FEBF0000014000002042DC480068F6
:1006200040F00100DA49086008464068D9490840AE
:10063000D749486008460068D7490840D44908604F
:100640000846006820F4802008600846406820F4CE
:10065000FE004860002088607047CD49096821F499
:100660008031CB4A11601146096821F48021116064
:10067000B0F5803F03D0B0F5802F0ED106E0C4491D
:10068000096841F48031C24A116007E0C049096835
:1006900041F4A021BE4A116000E000BF00BF7047D6
:1006A00010B501460022002300204A11012A02D180
:1006B000B74C236806E0022A02D1B54C236A01E058
:1006C000B34C636A01F01F02012494401C4201D024
:1006D000012000E0002010BD38B50020009000246B
:1006E000002500BF3120FFF7DBFF05460098401CC6
:1006F00000901DB90098B0F5A06FF3D13120FFF73D
:10070000CFFF08B1012400E00024204638BD014697
:1007100000209F4A106820F0F80040EAC1001060F5
:1007200070479E490860704702460020984B586801
:1007300020F47C1042EA01031843954B586070473F
:1007400096490866704701460020914A506820F09B
:1007500003000843506070478D48406800F00C006B
:100760007047014600208A4A506820F0F000084394
:100770005060704701460020854A506820F4E060D0
:1007800008435060704701460020814A506820F4B9
:10079000605040EAC1005060704729B17C4A527AEB
:1007A00002437B4B5A7204E0794A527A8243784B77
:1007B0005A7270477A490860704701460020744AAF
:1007C000506820F440400843506070470021754A4B
:1007D00011706F4A82F82010012802D0042808D135
:1007E00003E001216F4A117004E005216D4A117088
:1007F00000E000BF00BF70476B4908607047644964
:10080000096A0143624A11627047674944390860C6
:10081000704730B500210022002400235C4D6D6834
:1008200005F00C0121B1042905D0082923D105E0E8
:100830005E4D056022E05D4D05601FE0544D6D6822
:1008400005F47012022505EB9242514D6D6805F4D6
:1008500080341CB9564D554305600BE04C4D6D6816
:1008600015F4003F03D0524D5543056002E04F4D53
:100870005543056002E04D4D056000BF00BF444D8B
:100880006D6805F0F00109094A4D6B5C0568DD40B3
:1008900045603F4D6D6805F4E061090A454D6B5CAC
:1008A0004568DD4085603A4D6D6805F46051C90AC0
:1008B000404D6B5C4568DD40C560354D6D6805F4A5
:1008C0004041890B3C4D6B5CC568B5FBF3F5056198
:1008D00030BD29B12E4A526902432D4B5A6104E0C2
:1008E0002B4A526982432A4B5A61704729B1284AE0
:1008F00092690243264B9A6104E0254A9269824339
:10090000234B9A61704729B1214AD2690243204B97
:10091000DA6104E01E4AD26982431D4BDA617047F6
:1009200029B11B4AD2680243194BDA6004E0184A25
:10093000D2688243164BDA60704729B1144A1269B3
:100940000243134B1A6104E0114A12698243104BAF
:100950001A61704714494039086070470F49C864EC
:1009600070470B49C87170470948406A40F0807071
:1009700007494862704701460020054A92680A42CA
:1009800001D0012000E000207047014988727047C3
:10099000001002400000FFF8FFFFF6FE0000424298
:1009A000D8004242201002408004424200127A00E5
:1009B00000093D00000000201000002010B5044692
:1009C000D749601A8C422BD006DCD648201813D0A9
:1009D000B0F5806F38D119E0B0F5806F2AD0B0F54E
:1009E0006C4F31D101218803FFF79AFF00214FF4AA
:1009F0008040FFF795FF28E001214804FFF79DFFA5
:100A000000214FF40030FFF798FF1EE00121880419
:100A1000FFF793FF00214FF48020FFF78EFF14E0D3
:100A20000121C804FFF789FF00214FF40020FFF7E0
:100A300084FF0AE001210805FFF77FFF00214FF442
:100A40008010FFF77AFF00E000BF00BF10BD2DE966
:100A5000F04786B005460E460024A24600BF00BF00
:100A600000272F462C8A4CF6FF700440F088044380
:100A70002C82AC894EF6F3100440B08831890843CB
:100A8000718908430443AC81AC8A4FF6FF400440AF
:100A9000B0890443AC8201A8FFF7BBFEA24887429D
:100AA00002D1DDF810A001E0DDF80CA00AEBCA00CD
:100AB00000EB0A1031688900B0FBF1F86420B8FB44
:100AC000F0F004012009642101FB1089322000EBC1
:100AD0000910B0FBF1F000F00F0004432C8106B0C8
:100AE000BDE8F0874FF41651016000218180C1807C
:100AF00001810C21418100218181704710B502469E
:100B00000020108A4FF2FF0318400B884C882343C3
:100B10008C882343CC8823431843108210BD0021C6
:100B2000018041808180C180704721B1828942F477
:100B30000052828104E082894DF6FF731A4082815F
:100B40007047F0B503460024002600250020184613
:100B5000C1F3421401F01F06012707FA06F5012C24
:100B600001D10C3004E0022C01D1103000E014302F
:100B70001AB107682F43076002E00768AF430760B8
:100B8000F0BD1AB1838A0B43838202E0838A8B43D0
:100B900083827047028A4FF6F0731A400282028AFB
:100BA0000A430282704782894FF2FF731A408281A2
:100BB00082890A438281704721B1828942F0020210
:100BC000828104E082894FF6FD731A40828170476A
:100BD000028A4FF6DF731A400282028A0A430282B7
:100BE000704721B1028A42F48042028204E0028A04
:100BF0004BF6FF731A4002827047C1F308028280ED
:100C0000704701468888C0F308007047818941F029
:100C1000010181817047028BD2B20283028B42EACA
:100C2000012202837047028B02F47F420283028B0F
:100C30000A430283704721B1828A42F020028282F5
:100C400004E0828A4FF6DF731A408282704721B136
:100C5000828A42F01002828204E0828A4FF6EF73A9
:100C60001A408282704721B1828A42F00802828251
:100C700004E0828A4FF6F7731A4082827047828AB4
:100C80004FF6FB731A408282828A0A43828270473F
:100C900021B1828A42F00202828204E0828A4FF607
:100CA000FD731A40828270470246002013880B426F
:100CB00001D0012000E000207047CA430280704745
:100CC00070B502460B460024002100250020C3F326
:100CD000421503F01F01012606FA01F1012D02D190
:100CE0009689314006E0022D02D1168A314001E09A
:100CF000968A31401C12012606FA04F41688344004
:100D000011B10CB1012000E0002070BD10B500222F
:100D100000230A1201249440A3B2DC43048010BDD6
:100D2000004C004000BCFFBF003801400CB5002063
:100D3000019000904748006840F4803045490860C1
:100D400000BF4448006800F4003000900198401C47
:100D50000190009818B90198B0F5A06FF1D13D4805
:100D6000006810F4003F02D00120009001E0002054
:100D700000900098012843D13748006840F01000E7
:100D8000354908600846006820F0030008600846FE
:100D9000006840F0020008602E4840682D49486015
:100DA0000846406848600846406840F480604860F3
:100DB0000846406820F47C1048600846406840F4CB
:100DC000E81048600846006840F08070086000BF86
:100DD0002048006810F0007FFAD01E48406820F0DC
:100DE00003001C4948600846406840F00200486023
:100DF00000BF1848406800F00C000828F9D101E055
:100E000000BFFEE70CBD10B5FFF790FF10BD10B599
:100E10001048006840F001000E490860084640682C
:100E20000E4908400B494860084600680C490840D4
:100E3000084908600846006820F4802008600846D9
:100E4000406820F4FE00486000208860FFF7DBFF68
:100E500010BD000000100240002002400000FFF81A
:100E6000FFFFF6FE08B54FF4C060FFF7D3F9252069
:100E70008DF8000001208DF801008DF802008DF83A
:100E800003006846FFF7CBF908BD08B501218020B3
:100E9000FFF72CFD4FF40070ADF8000010208DF826
:100EA000030003208DF802006946BC48FFF788FA6A
:100EB00008BD7CB500F018FE002516E0002410E007
:100EC0002946204600F0B2FC691C204600F0AEFC2A
:100ED0002946601C00F0AAFC691C601C00F0A6FCFE
:100EE0003234B4F5487FEBDB3235B5F5167FE5DB00
:100EF00000F0E7FB40F6B83000F0B8FA00F0F4FD7F
:100F000000240FE040F2572322460021084600F05B
:100F1000B2FC40F257232246002140F21F3000F07D
:100F2000AAFC6434B4F5487FECDB00F0CAFB40F661
:100F3000B83000F09BFA00F0D7FD0321002000F04C
:100F400013FC64231A460A21084600F0D6FC03214C
:100F5000012000F009FC6423C8220A216E2000F061
:100F6000CCFC0321022000F0FFFB64234FF49672B7
:100F70000A21D22000F0C1FC00F0A3FB40F6B830FB
:100F800000F074FA0321002000F0EEFB00F0ACFD4D
:100F9000002407E0224640F22B1140F28F1000F0AF
:100FA000DBFC2834B4F5967FF4DB00F08AFB40F6D6
:100FB000B83000F05BFA00F097FD002515E0002442
:100FC00010E005EBC50202EB0512322303EB8201B0
:100FD00004EBC40202EB041203EB82001A4600F099
:100FE000E4FC641C082CECDB6D1C062DE7DB00F038
:100FF00068FB40F6B83000F039FA00F075FD0124C6
:101000002BE004EBC40000EB041040F25D1101EB97
:10101000400004EBC40101EB041140F2C11202EBE9
:101020004101CDE9001004EBC40000EB041040F2D4
:101030005D1606EB400304EBC40000EB0410A6EBC6
:10104000400204EBC40000EB0410F926A6EB4001BB
:1010500040F28F1000F0D2FC641C052CD1DB00F0B4
:1010600030FB40F6B83000F001FA7CBD10B503212A
:10107000002000F079FB00F037FD012000F0B6FB06
:101080003222002146A000F04CFD022000F0AEFB11
:101090006422002148A000F044FD032000F0A6FBDC
:1010A000A02200214AA000F03CFD012000F07EFBC0
:1010B0004FF4967200214CA000F033FD022000F0A6
:1010C00075FB4FF4AF7200214DA000F02AFD032004
:1010D00000F06CFB4FF4E17200214FA000F021FD05
:1010E00000F0EFFA40F6B83000F0C0F910BD10B5CE
:1010F00000F0FAFC002211464DA000F05AFD00F06D
:10110000E0FA41F2883000F0B1F900F0EDFC642221
:1011100000214AA000F04DFD642291004AA000F099
:1011200048FD00F0CEFA41F2883000F09FF900F05F
:10113000DBFC0022114647A000F03BFD00F0C1FAA5
:1011400010BD0024FFF763FE454800F05DF900F094
:10115000D1F8FFF79AFE00F0CDF900F012FA002066
:1011600000F07EFAFFF7A5FEFFF780FFFFF7BFFF55
:1011700000F096FA10E04FF4FA7000F077F934B10D
:1011800000244FF400710548FFF7C7F904E001247B
:1011900061020248FFF7BFF9EDE70000001C0140C3
:1011A000A3C7A3C2A3CBA3B3A3B2A3BAC4E3BAC3D6
:1011B000CAC0BDE700000000A3C7A3C2A3CBA3B46D
:1011C000A3B8A3BAC4E3BAC3CAC0BDE70000000015
:1011D000A3C7A3C2A3CBA3B6A3B4A3BAC4E3BAC3A1
:1011E000CAC0BDE700000000415343494933323AC9
:1011F0002048656C6C6F2C20576F726C6421000066
:10120000415343494934383A2048656C6C6F2C206F
:10121000576F726C64210000415343494936343A98
:101220002048656C6C6F2C20576F726C6421000035
:10123000504943342E424D50000000005049433283
:101240002E424D5000000000504943332E424D5075
:1012500000000000504943372E424D50000000006E
:1012600000A24A047047704700BFFEE700BFFEE7D8
:1012700000BFFEE770477047704770477047704780
:1012800070477047704770477047704770477047A6
:101290007047704770477047704770477047704796
:1012A0007047704770477047704770477047704786
:1012B0007047704770477047704770477047704776
:1012C0007047704770477047704770477047704766
:1012D0007047704770477047704770477047704756
:1012E0007047704770477047704770477047704746
:1012F0007047704700B585B04FF4E1300090002092
:10130000ADF80400ADF80600ADF80800ADF80C002B
:101310000C20ADF80A0001210520FFF7E7FA0121B2
:101320008803FFF7E3FA4FF40070ADF810001820BF
:101330008DF8130003208DF8120004A91848FFF758
:101340003FF84FF48060ADF8100004208DF81300D2
:1013500004A91348FFF734F869461248FFF777FBF2
:10136000012240F225510F48FFF7EBFB01210D4808
:10137000FFF7DBFB05B000BD014600BF704770B54D
:1013800004460D46E1B20748FFF737FC00BF802155
:101390000448FFF789FC0028F9D0204670BD000002
:1013A000000801400038014010B5C3084FF47A74BA
:1013B00003FB04F24A434FF0E0235A6100234FF04D
:1013C000E024A36123461B6943F00303236110BD9E
:1013D000F1B5009800F025FE064600222D4B00F0E6
:1013E0009BFC044600F0F0FD2B490860009800F0DB
:1013F00018FE06460022294B00F08EFC044600F041
:10140000E3FD27490860F8BD01B500204FF0E02159
:1014100008610846006940F0040008610098FFF781
:10142000D7FF08BD01B51C490098096848434FF033
:10143000E0214861002088610846006940F0010011
:10144000086100BF4FF0E020006910F4803FF9D040
:101450004FF0E020006920F480304FF0E021086177
:101460000846006920F00100086108BD01B581B09F
:101470000198400001900020009006E04FF4FA70BF
:10148000FFF7D0FF0098401C0090DDE90001884282
:10149000F4D30CBD80842E411400002000408F4006
:1014A00018000020002000E0401CB0F5FA7FFBDBB4
:1014B000704770B505460E4600240BE0295DFE48D6
:1014C000FFF79BFB00BF8021FB48FFF7EDFB0028E7
:1014D000F9D0641CB442F1DB70BD30B502460B4656
:1014E00014460021002002E0655C6840491C9942D6
:1014F000FADB30BD08B501210420FFF7F7F94FF4FE
:10150000C050ADF8000010208DF8030003208DF8C6
:1015100002006946E948FEF753FF4FF40061E748CF
:10152000FEF7FBFF4FF48051E448FEF7F6FF08BDDD
:1015300010B54FF48051E148FEF7EFFFFFF7B2FF1F
:10154000FFF7B0FF4FF48051DC48FEF7E4FFFFF7F0
:10155000A9FFFFF7A7FFFFF7A5FFFFF7A3FFFFF71F
:10156000A1FFFFF79FFFFFF79DFFFFF79BFF4FF4E2
:101570008051D248FEF7D1FF40F6B830FFF776FF32
:1015800010BD10B54FF40061CC48FEF7C6FFFFF761
:1015900089FFFFF787FF4FF40061C848FEF7BBFFE4
:1015A000FFF780FFFFF77EFFFFF77CFFFFF77AFF73
:1015B000FFF778FFFFF776FFFFF774FFFFF772FF83
:1015C0004FF40061BD48FEF7A8FF0A20FFF74EFF69
:1015D00010BD10B5BA48BB490A680260496841604D
:1015E0000821FFF77AFFB64908720921B448FFF7CE
:1015F00060FF10BD10B50446A520B1490870002059
:1016000048700D2088700120C870200E0871200CD1
:101610004871200A8871CC71CC200872332048723E
:10162000C32088723C20C8720C21A548FFF755FFE3
:10163000A34908730D21A248FFF73BFF10BD10B569
:101640009F48A1490A680260496841600821FFF784
:1016500044FF9B49087209219948FFF72AFF10BDF2
:1016600010B50446A52096490870002048700A204D
:1016700088700720C87008460471CC204871332058
:101680008871C320C8713C20087209218C48FFF77B
:1016900024FF8B4948720A218948FFF70AFF10BDD1
:1016A00010B5874889490A68026049684160082185
:1016B000FFF713FF8249087209218148FFF7F9FEFD
:1016C00010BD10B57E4882490A68026049684160D1
:1016D0000821FFF702FF7A49087209217848FFF7CD
:1016E000E8FE10BD10B50446A5207549087000201D
:1016F00048700A2088700D20C87008460471CC20FC
:10170000487133208871C320C8713C2008720921B8
:101710006B48FFF7E2FE6A4948720A216848FFF702
:10172000C8FE10BD10B566486A490A68026049687B
:1017300041600821FFF7D1FE614908720921604824
:10174000FFF7B7FE10BD10B55D4863490A68026037
:10175000496841600821FFF7C0FE59490872092114
:101760005748FFF7A6FE10BD70B504460D46A520EC
:1017700053490870002048700B2088701020C870F2
:10178000084604714571CC2088713320C871C3208C
:1017900008723C2048720A214948FFF79EFE4849DA
:1017A00088720B214648FFF784FE70BD10B50446D1
:1017B000A52043490870002048700A2088701E2028
:1017C000C87008460471CC20487133208871C3204A
:1017D000C8713C20087209213948FFF77EFE38495C
:1017E00048720A213648FFF764FE10BD10B5044662
:1017F000A52033490870002048700A2088701F20F7
:10180000C87008460471CC20487133208871C32009
:10181000C8713C20087209212948FFF75EFE28495B
:1018200048720A212648FFF744FE10BD70B50446F1
:101830000D46A52022490870002048700D208870B0
:101840002020C870200A08714C71280A8871CD7157
:10185000CC20087233204872C32088723C20C872A2
:101860000C211748FFF739FE154908730D2114485C
:10187000FFF71FFE70BD2DE9F04104460D461646E8
:101880001F46A5200E49087000204870112088705E
:101890002220C870200A08714C71280A8871CD7105
:1018A000300A08724E72380A8872CF72CC200873E0
:1018B00033204873C32011E0003801400008014084
:1018C0001C000020F0200008F8200008002100087B
:1018D00008210008102100081821000888733C2006
:1018E000C8731021CF48FFF7F8FDCE4908741121C5
:1018F000CC48FFF7DEFDBDE8F0812DE9F04104465C
:101900000D4616461F46A520C6490870002048709F
:10191000112088702420C870200A08714C71280A90
:101920008871CD71300A08724E72380A8872CF728F
:10193000CC20087333204873C32088733C20C873BD
:101940001021B848FFF7C9FDB64908741121B54800
:10195000FFF7AFFDBDE8F08170B504460D461646B1
:10196000A520B0490870002048700F2088702620FC
:10197000C870200A08714C71280A8871CD71300A2C
:1019800008724E72CC2088723320C872C32008734C
:101990003C2048730E21A348FFF79FFDA14988739F
:1019A0000F21A048FFF785FD70BD70B504460D46B8
:1019B0001646A5209B490870002048700F208870AB
:1019C0002720C870200A08714C71280A8871CD71CF
:1019D000300A08724E72CC2088723320C872C3203D
:1019E00008733C2048730E218E48FFF776FD8D4921
:1019F00088730F218B48FFF75CFD70BD2DE9F04720
:101A000004460D4616461F46DDE90889A52085498E
:101A1000087000204870152088702820C870200A9F
:101A200008714C71280A8871CD71300A08724E72A3
:101A3000380A8872CF724FEA1820087381F80D8037
:101A40004FEA1920887381F80F90CC200874332056
:101A50004874C32088743C20C87414217148FFF76F
:101A60003CFD7049087515216E48FFF722FDBDE861
:101A7000F0872DE9F04704460D4616461F46DDE97E
:101A80000889A520674908700020487015208870D3
:101A90002920C870200A08714C71280A8871CD71FC
:101AA000300A08724E72380A8872CF724FEA1820D4
:101AB000087381F80D804FEA1920887381F80F9020
:101AC000CC20087433204874C32088743C20C87428
:101AD00014215448FFF701FD52490875152151485A
:101AE000FFF7E7FCBDE8F08710B5A5204D49087069
:101AF00000204870092088702E20C870CC20087102
:101B000033204871C32088713C20C87108214548A2
:101B1000FFF7E3FC4349087209214248FFF7C9FC7B
:101B200010BD2DE9F04107460D461646B846404621
:101B300000F09FF804460E34A5203A490870200AA8
:101B400048708C703020C870280A08714D71300AB6
:101B50008871CE7141463348083000F066F8641F42
:101B6000CC203049085533212E4A601C1154C32122
:101B7000A01C11543C21E01C1154211D1046FFF7FC
:101B8000ACFC284A211D5054611D1046FFF791FC02
:101B9000BDE8F081F8B504460D4616468DF80040C4
:101BA00000208DF80100324629466846FFF7B9FF4C
:101BB000F8BD2DE9F04107460D461646B8464046A9
:101BC00000F057F804460E34A52016490870200A84
:101BD00048708C707020C870280A08714D71300AE6
:101BE0008871CE7141460F48083000F01EF8641F1E
:101BF000CC200C49085533210A4A601C1154C321DA
:101C0000A01C11543C21E01C1154211D1046FFF76B
:101C100064FC044A211D5054611D1046FFF749FC25
:101C2000BDE8F0811C000020704740EA0103024635
:101C300030B59B0710D14FF0013400E008C208C94D
:101C40001D1B9D4315EAC41FF8D013F0FF0102F8D5
:101C5000011B0DD01B0AF8E711F8013B002B02F81D
:101C6000013B05D011F8013B002B02F8013BF3D1F9
:101C700030BD10B5431C02E010F8011B71B18107A3
:101C8000FAD14FF0013202C88C1A8C4314EAC21107
:101C9000F9D0C01A0A0603D0C01E10BDC01A10BD6C
:101CA0000A0401D0801E10BD0902FCD0401E10BDE8
:101CB0007047704770477047754600F029F8AE4688
:101CC00005006946534620F00700854618B020B548
:101CD000FEF78EFABDE820404FF000064FF00007F7
:101CE0004FF000084FF0000B21F00701AC46ACE8C4
:101CF000C009ACE8C009ACE8C009ACE8C0098D4631
:101D000070470446AFF300802046FEF758FA000003
:101D1000004870471C0200202DE9C04130B4DFF8B4
:101D2000A0C23CEA111418BF3CEA131400F0EC8086
:101D300081EA03051CEA111444EAD57418BF1CEAB1
:101D4000131500F0C780A4EB05044FF0004545EAE9
:101D5000C12145EAC32341EA505143EA525304F1F9
:101D60007F74994204F500344FEAC0204FEAC22242
:101D700008BF904200F09C804FEA13650FF24016B6
:101D8000765D4FEA134506FB05F7C7F1807706FB42
:101D900007F74FEAD737A7FB03687642C8F58038C4
:101DA000A7FB06CE38BFA8F1010807FB08E64FF0F5
:101DB000000EA6FB028CE6FB03CEDCF1000CCEF19C
:101DC000004E38BFAEF1010EA6FB0C584FF00007D5
:101DD0004FF00005E6FB0E87A1FB08C6A0FB07CE6F
:101DE00016EB0E0645F10005E1FB076515F1E04E27
:101DF0007EBFA4F580345FEA46066D4116F1800788
:101E000045F100054FEA17274FEA066647EA0567DE
:101E1000A6F1DE46B6F1805F4FEA15251FD9384698
:101E200024F0010C05EBC471BCF1FE6F01EB0C1149
:101E300002D8F0BCBDE8008124425CBF01F5801EE1
:101E40009EEAC47F02D4F0BCBDE80081244238D4AD
:101E5000F0BCA1F1C041BDE8004100F043B94FEA38
:101E6000D22242EA43524FEAD323A7FB02864FEA2B
:101E7000D02040EA415007FB03661EEA0E0F4FEAEE
:101E8000D12105FB026658BFA6EB0056B6EB005603
:101E90004FEA520E4EEAC37E18EB0E0E56EB530E6F
:101EA000BDD518EB02085E417F1C55F10005B6E771
:101EB0004FF480154FF000074FF000064FF0000878
:101EC000ADE7F0BC4FF0000001F1C04101F000416E
:101ED000BDE8008111EA0C1F0CEA131500D00CE0DC
:101EE00013EA0C1F00F025804FF00000F0BC81EADF
:101EF000030101F00041BDE80081F0BCBDE80041F4
:101F000081EA030100F0EEB8F0BCBDE8004170B515
:101F100000F09AF8097EFC3E00F007B881EA030160
:101F20004FF0000001F00041704781EA030100F02A
:101F3000D9B8F0BCBDE800414FF00000214970471E
:101F4000FFFDFBF9F7F5F4F2F0EEEDEBE9E8E6E47E
:101F5000E3E1E0DEDDDBDAD8D7D5D4D3D1D0CFCD05
:101F6000CCCBCAC8C7C6C5C4C2C1C0BFBEBDBCBB3E
:101F7000BAB9B8B7B6B5B4B3B2B1B0AFAEADACAB39
:101F8000AAA9A8A8A7A6A5A4A3A3A2A1A09F9F9E13
:101F90009D9C9C9B9A9999989797969595949393C5
:101FA000929191908F8F8E8E8D8C8C8B8B8A89895C
:101FB00088888787868585848483838282818180DF
:101FC0000000FF070000F87F4FEA1153A3F580637C
:101FD000D3F11E03A8BFD3F1200C08DB4FF0004261
:101FE00042EAC12252EA505232FA03F070470942E3
:101FF0000BD4102BC4BF0020704703F5787CBCF1D4
:10200000FF3F05D04FF0FF3070474FF000007047A2
:1020100070B500F019F800BF499224800020704785
:10202000F0E7B0FA80F310FA03F10AD0C3F11D0310
:1020300003F580634FEA41504FEA035202EBD1218E
:1020400070474FF0000070470EF1020E2EF0030EA5
:102050005EF8046B364205D4012A43EB030515F5FF
:10206000001F12D8012841EB010C1CF5001F0CD8F1
:102070000ED14FEAD17C15F5001F0CEB4C0C0CF186
:10208000020C08BF4CEBD37C04E04FF0080C01E0DD
:102090004FEAD37C0CEB4C0526FA05F606F0070652
:1020A000B6F1040C06D20EEB860CBDE870404CF085
:1020B000010C6047DFE80CF0090B02024FF0004111
:1020C0004FF00000A1F5002170BD1946104601280F
:1020D00051EB010418BFD4F5001484BF002001F0B7
:1020E000004170BD0808A0F500114FEA31017047AA
:1020F000A5000900CC33C33CA5000902CC33C33C86
:10210000A5000908CC33C33CA500090ACC33C33C65
:10211000A500090ECC33C33CA500090FCC33C33C4A
:1021200040210008000000201C0000006C01000895
:102130005C2100081C0000206408000088010008E1
:10214000000000000102030401020304060708095D
:0C2150000204060800000000000000006F
:0400000508000131BD
:00000001FF
