:020000040800F2
:1000000000040020E3090008F1090008F3090008D2
:10001000F5090008F7090008F909000800000000C8
:10002000000000000000000000000000FB090008C4
:10003000FD09000800000000FF090008010A00088F
:10004000450A0008470A0008490A00084B0A000848
:100050004D0A00084F0A0008510A0008530A000818
:10006000550A0008570A0008590A00085B0A0008E8
:100070005D0A00085F0A0008610A0008630A0008B8
:10008000650A0008670A0008690A0008030A0008F0
:10009000030A0008030A0008030A0008730A00089C
:1000A000750A0008770A0008790A00087B0A000828
:1000B0007D0A00087F0A0008810A0008830A0008F8
:1000C000850A0008870A0008890A00088B0A0008C8
:1000D0008D0A00088F0A0008910A0008930A000898
:1000E000950A0008970A0008990A00089B0A000868
:1000F0009D0A00089F0A0008A10A0008A30A000838
:10010000A50A0008A70A0008A90A0008AB0A000807
:10011000AD0A0008AF0A0008B10A0008B30A0008D7
:10012000B50A0008B70A0008B90A0008BB0A0008A7
:1001300000F002F800F03AF80AA090E8000C8244BF
:100140008344AAF10107DA4501D100F02FF8AFF29C
:10015000090EBAE80F0013F0010F18BFFB1A43F0A5
:1001600001031847A00F0000C00F0000103A24BF81
:1001700078C878C1FAD8520724BF30C830C144BF0C
:1001800004680C607047000000230024002500264E
:10019000103A28BF78C1FBD8520728BF30C148BFEA
:1001A0000B6070471FB51FBD10B510BD00F055FFA7
:1001B0001146FFF7F7FF00F0D2FC00F073FF03B425
:1001C000FFF7F2FF03BC00F077FF000010B5044614
:1001D000C248844208D10121042000F017FB00210D
:1001E000042000F013FB46E0BD48844208D1012101
:1001F000082000F00BFB0021082000F007FB3AE08C
:10020000B848844208D10121102000F0FFFA0021F3
:10021000102000F0FBFA2EE0B348844208D10121FF
:10022000202000F0F3FA0021202000F0EFFA22E075
:10023000AE48844208D10121402000F0E7FA0021B5
:10024000402000F0E3FA16E0A948844208D10121D9
:10025000802000F0DBFA0021802000F0D7FA0AE0CD
:10026000A448844207D10121801500F0CFFA002173
:10027000A01500F0CBFA10BD10B50121084600F022
:10028000C5FA0021012000F0C1FA10BD2DE9F041AE
:10029000024600250026002000230024002791F8B4
:1002A00003C00CF00F0591F803C01CF0100F03D031
:1002B00091F802C04CEA050591F800C0BCF1000FAE
:1002C00031D0146800202BE04FF0010C0CFA00F341
:1002D000B1F800C00CEA03069E4220D183004FF023
:1002E0000F0C0CFA03F7BC4305FA03FC4CEA0404B8
:1002F00091F803C0BCF1280F06D14FF0010C0CFAA5
:1003000000FCC2F814C00AE091F803C0BCF1480F29
:1003100005D14FF0010C0CFA00FCC2F810C0401CD3
:100320000828D1D31460B1F800C0BCF1FF0F34DD50
:10033000546800202EE000F1080C4FF0010808FA84
:100340000CF3B1F800C00CEA03069E4221D18300F1
:100350004FF00F0C0CFA03F7BC4305FA03FC4CEA10
:10036000040491F803C0BCF1280F05D100F1080C7A
:1003700008FA0CF8C2F8148091F803C0BCF1480FD9
:1003800007D100F1080C4FF0010808FA0CF8C2F888
:100390001080401C0828CED35460BDE8F0814FF691
:1003A000FF710180022181700421C17070470246F3
:1003B000002093680B4201D0012000E0002070472C
:1003C0000146886880B2704702460020D3680B421D
:1003D00001D0012000E0002070470146C86880B2CB
:1003E000704701617047416170470AB1016100E0E7
:1003F00041617047C16070474FF480320A438261A7
:1004000081618261826982697047024600203A4BAD
:1004100018684FF68073184040EA02100843364BC4
:10042000186070473549C8617047F0B50A46002327
:10043000002400210025304E7168C0F3034583B2CB
:1004400000F44016B6F5401F08D121F070612A4E25
:10045000766826F07066284F7E6012E000F4801601
:10046000B6F5801F06D1032606FA05F4A14341F034
:10047000706106E0460D360103FA06F6B14341F01D
:10048000706122B1460D360103FA06F631431A4E69
:100490007160F0BD30B500228B071C0F0F2303FAEB
:1004A00004F2154B08338C1053F824309343124C4C
:1004B00008348D1044F8253023468C1053F824302E
:1004C0008C07240F00FA04F423430B4C08348D10DE
:1004D00044F8253030BD0A490860704700080140E3
:1004E000000C0140001001400014014000180140C0
:1004F000001C01400020014000000140000020429B
:10050000DC002042DD48006840F00100DB49086063
:1005100008464068DA490840D849486008460068FB
:10052000D8490840D54908600846006820F4802072
:1005300008600846406820F4FE0048604FF41F0041
:1005400088607047CD49096821F48031CB4A116039
:100550001146096821F480211160B0F5803F03D075
:10056000B0F5802F0ED106E0C449096841F480310E
:10057000C24A116007E0C149096841F4A021BF4A9D
:10058000116000E000BF00BF704710B501460022B7
:10059000002300204A11012A02D1B84C236806E04A
:1005A000022A02D1B54C236A01E0B44C636A01F01F
:1005B0001F02012494401C4201D0012000E00020D1
:1005C00010BD38B5002000900024002500BF312068
:1005D000FFF7DBFF05460098401C00900098B0F53F
:1005E000A06F01D0002DF2D03120FFF7CEFF08B16F
:1005F000012400E00024204638BD014600209F4A27
:10060000106820F0F80040EAC100106070479E4971
:100610000860704702460020984B586820F47C1010
:1006200042EA01031843954B5860704796490866A3
:10063000704701460020914A506820F003000843AB
:10064000506070478D48406800F00C0070470146CC
:1006500000208A4A506820F0F0000843506070473C
:1006600001460020854A506820F4E060084350604D
:10067000704701460020814A506820F4605040EAEB
:10068000C1005060704729B17C4A527A02437B4BCB
:100690005A7204E0794A527A8243784B5A72704710
:1006A0007A490860704701460020744A506820F477
:1006B00040400843506070470021754A11706F4AEE
:1006C00082F82010012802D0042808D103E001217B
:1006D0006F4A117004E005216D4A117000E000BFFF
:1006E00000BF70476B49086070476449096A01435D
:1006F000624A11627047674944390860704730B5F3
:1007000000210022002400235C4D6D6805F00C01DF
:1007100021B1042905D0082923D105E05E4D0560EB
:1007200022E05D4D05601FE0544D6D6805F47012C8
:10073000524D6D6805F48034022505EB92421CB9D8
:10074000564D554305600BE04C4D6D6815F4003F68
:1007500003D0524D5543056002E04F4D55430560AF
:1007600002E04D4D056000BF00BF444D6D6805F0CF
:10077000F00109094A4D6B5C0568DD4045603F4D5D
:100780006D6805F4E061090A454D6B5C4568DD4024
:1007900085603A4D6D6805F46051C90A404D6B5C47
:1007A0004568DD40C560354D6D6805F44041890BF5
:1007B0003C4D6B5CC568B5FBF3F5056130BD29B1F7
:1007C0002E4A526902432D4B5A6104E02B4A52696A
:1007D00082432A4B5A61704729B1284A92690243E1
:1007E000264B9A6104E0254A92698243234B9A6121
:1007F000704729B1214AD2690243204BDA6104E0F3
:100800001E4AD26982431D4BDA61704729B11B4AE7
:10081000D2680243194BDA6004E0184AD268824376
:10082000164BDA60704729B1144A12690243134B20
:100830001A6104E0114A12698243104B1A61704731
:1008400014494039086070470F49C86470470B4924
:10085000C87170470948406A40F080700749486293
:10086000704701460020054A92680A4201D00120E3
:1008700000E0002070470149887270470010024074
:100880000000FFF8FFFFF6FE00004242D80042429F
:10089000201002408004424200127A0000093D000C
:1008A00000000020100000200CB5002001900090F6
:1008B0004748006840F480304549086000BF44481C
:1008C000006800F4003000900198401C01900098EE
:1008D00018B90198B0F5A06FF1D13D48006810F447
:1008E000003F02D00120009001E00020009000981D
:1008F000012843D13748006840F0100035490860AE
:100900000846006820F0030008600846006840F0D0
:10091000020008602E4840682D494860084640683B
:1009200048600846406840F4806048600846406877
:1009300020F47C1048600846406840F4E8104860A5
:100940000846006840F08070086000BF20480068DA
:1009500010F0007FFAD01E48406820F003001C49C8
:1009600048600846406840F00200486000BF1848F0
:10097000406800F00C000828F9D101E000BFFEE754
:100980000CBD10B5FFF790FF10BD10B51048006802
:1009900040F001000E490860084640680E490840D2
:1009A0000B494860084600680C490840084908603F
:1009B0000846006820F4802008600846406820F45B
:1009C000FE0048604FF41F008860FFF7DAFF10BD9B
:1009D00000100240002002400000FFF8FFFFF6FE7A
:1009E00070470B4880470B4981F308880A48004745
:1009F000FEE7FEE7FEE7FEE7FEE7FEE7FEE7FEE7CF
:100A0000FEE7FEE705480649064A074B7047000027
:100A1000E1090008E850002031010008E84A002000
:100A2000E8500020E84C0020E84C00207047704758
:100A300000BFFEE700BFFEE700BFFEE7704770475C
:100A400070477047704770477047704770477047EE
:100A500070477047704770477047704770477047DE
:100A600070477047704770477047704770477047CE
:100A700070477047704770477047704770477047BE
:100A800070477047704770477047704770477047AE
:100A9000704770477047704770477047704770479E
:100AA000704770477047704770477047704770478E
:100AB00070477047704770477047704710B5FFF731
:100AC00064FF01213C20FFF787FE4FF4877028491F
:100AD00008801020C870032088702648FFF7D6FBD6
:100AE0004FF60770224908801020C87003208870D4
:100AF0002148FFF7CBFB43F6FF701D49088010200B
:100B0000C870032088701D48FFF7C0FB01201849FA
:100B100008804820C870032088701648FFF7B6FB8D
:100B20002020134908804820C8700320887012488C
:100B3000FFF7ACFB08200E4908804820C87003204E
:100B400088700E48FFF7A2FB04200949088048205E
:100B5000C870032088700A48FFF798FB10BDFFF7A4
:100B6000ADFF00F0B8F8AA2000F0E6F900BFFEE7FC
:100B70001400002000080140000C0140001001405A
:100B80000014014001B502E00098401E009000985A
:100B90000028F9D108BD30B5002147E0002242E02D
:100BA0000020C2F38114C4EB0414F74D2C44605CA4
:100BB0008406200E4FF6FC742040C2F30114C4EBEF
:100BC00004142C44645C20438406200E4FF6FC740D
:100BD0002040C2F38104C4EB04142C44645C204321
:100BE0008406200E4FF6FC74204002F00304C4EB90
:100BF00004142C44645C20430023C02404EA8013C2
:100C0000302404EA80041C44E3B20C2404EAA00467
:100C10001C44E3B203EB9014E3B2C2EB0214DB4DCD
:100C20002C446354521CFF2ABADD491C0F29B5DB42
:100C300030BD10B500200EE0002109E00022C1EB1C
:100C4000011303EB8303D24C04EB83031A54491CB6
:100C50003229F3DB401CB0F5967FEDDB10BD10B5FB
:100C60000221CC48FFF7BDFB0F20FFF78BFF0421CB
:100C7000C848FFF7B6FB0F20FFF784FF0821C548DF
:100C8000FFF7AFFB0F20FFF77DFF0221C248FFF700
:100C9000A8FBFF20FFF776FF10BD10B50221BE486C
:100CA000FFF7A1FBFF20FFF76DFF0821B948FFF711
:100CB0009AFB0F20FFF766FF0421B648FFF793FB6E
:100CC0000F20FFF75FFF0221B248FFF78CFBFF20E8
:100CD000FFF758FF10BD10B54FF40061AE48FFF7A5
:100CE00082FB4FF48051AC48FFF77BFB4FF480410F
:100CF000A948FFF776FB4FF40041A748FFF771FBC7
:100D00004FF48071A348FFF76EFB4FF40051A248E7
:100D1000FFF769FBFFF7C1FF4FF480609E49143174
:100D20000860801008604000086000019B4908616D
:100D30004011086140004861FFF72DFFFFF779FF80
:100D400010BD10B54FF48070944908610220944999
:100D500008700DE04FF40070904948610F20FFF7D4
:100D600011FF4FF400708D4908610F20FFF70AFF53
:100D70008B4801780078401E894A10700029E9D11B
:100D80004FF48070854948610220114608700DE0DB
:100D90004FF40070814948610F20FFF7F3FE4FF4D4
:100DA00000707E4908610F20FFF7ECFE7C48017857
:100DB0000078401E7A4A10700029E9D14FF4807003
:100DC000764908610220114608700DE04FF400706A
:100DD000724948610F20FFF7D5FE4FF400706F494C
:100DE00008610F20FFF7CEFE6D4801780078401EA5
:100DF0006B4A10700029E9D110BD4FF48061664A3A
:100E0000103211608910121D1160121F1160121D25
:100E10001160121F11608900121D1160891011608C
:100E2000121F1160121D1160121F11604900116024
:100E30004910121D1160121F1160121D1160121F46
:100E400011604901554A51611146C96889B2554A34
:100E500011601146098801F47F4111600021524A56
:100E6000117016E050490978415C4E4A12681143EE
:100E70004E4A116011460968484AD1609115464AA8
:100E800014321160121F116047490978491C464A03
:100E9000117045490978C829E4DB4FF400513F4AF5
:100EA000116149113C4A14321160121F1160121D68
:100EB0001160121F11604900384A5161364A1432DC
:100EC000116049101160121F1160121D1160121F74
:100ED00011604900314A116170472DE9F041074620
:100EE000FFF7BDFE002621E0FFF72BFF002516E0EF
:100EF00000240EE005EBC50000EB051004EBC0007C
:100F0000385CC0EB001021490844805D2849085531
:100F1000641CC82CEED32648FFF76FFF6D1CB5F597
:100F2000167FE5D32248FFF768FF761C0D2EDBD332
:100F3000FFF7B3FEBDE8F0812DE9F0410646FFF76B
:100F40008EFE00241AE0FFF7FCFE00270FE00025CC
:100F500007E0C6EB06100D490844005D14494855EA
:100F60006D1CC82DF5D31248FFF747FF7F1CB7F55E
:100F7000167FECD30E48FFF740FF641C0F2CE2D322
:100F8000FFF78BFEBDE8F081C6100008F0000020DE
:100F9000F00F002000080140000C0140001001404B
:100FA0001C000020200000201D0000202400002044
:100FB0002800002070B5FFF752FE002417E0FFF76D
:100FC000C0FE00260CE0002504E01F48005D1F491C
:100FD00048556D1CC82DF8D31C48FFF70EFF761C32
:100FE000B6F5167FEFD31948FFF707FF641C0F2CE7
:100FF000E5D3FFF752FEFFF71CFE70BDF0B50B46C0
:101000001446C51700EB5575ED10C5EB051505EB3E
:1010100085050F4E06EB8505ED5CC61700EB567691
:10102000F610A0EBC6070126BE403543C61700EBFD
:101030005676F610C6EB061606EB8606044F07EB4F
:101040008606F554F0BD0000F000002028000020C6
:10105000F00F0020704770477047754600F028F881
:10106000AE4605006946534620F00700854618B095
:1010700020B5FFF7C7FCBDE820404FF000064FF059
:1010800000074FF000084FF0000B21F00701AC46BD
:10109000ACE8C009ACE8C009ACE8C009ACE8C009DC
:1010A0008D4670470446AFF300802046FFF787F86F
:1010B00000487047884A002001491820ABBEFEE76F
:1010C0002600020070470001010101020202020134
:1010D00001010100000001010101020202020101FF
:1010E00000000000000101010102020202010000F3
:1010F00000000000010101010202020200000000E4
:10110000000000002411000800000020280000005A
:101110006C0100084C11000828000020C05000009D
:10112000880100080000000001020304010203041A
:10113000060708090204060800000000000000007D
:0C114000000000000000000000000000A3
:0400000508000131BD
:00000001FF
